:020000040800F2
:10000000806E002029030008BD4A0008293E000830
:10001000B1490008D10A000815800008000000005E
:10002000000000000000000000000000690200085D
:100030009515000800000000C502000805590008D9
:100040004303000843030008430300084303000878
:100050004303000843030008430300084303000868
:100060004303000843030008430300084303000858
:100070002912000843030008430300084303000853
:10008000430300084303000843030008E10A000893
:10009000D50A00084303000843030008430300088F
:1000A0004303000843030008430300084303000818
:1000B0004303000843030008430300084303000808
:1000C00043030008430300084303000843030008F8
:1000D00043030008430300084303000843030008E8
:1000E00043030008430300084303000843030008D8
:1000F00043030008430300084303000843030008C8
:1001000043030008430300084303000843030008B7
:1001100043030008430300084303000843030008A7
:100120004303000843030008351200084303000896
:10013000430300084303000843030008F90A0008CA
:10014000ED0A000843030008430300089D4B000824
:10015000430300084303000841120008430300085A
:100160004303000843030008430300084303000857
:100170004303000843030008430300080000000095
:10018000430300084303000800F002F800F05CF8A5
:100190000AA090E8000C82448344AAF10107DA45E2
:1001A00001D100F051F8AFF2090EBAE80F0013F0D8
:1001B000010F18BFFB1A43F0010318477CA0000091
:1001C0009CA000000A444FF0000C10F8013B13F013
:1001D000070408BF10F8014B1D1108BF10F8015BA0
:1001E000641E05D010F8016B641E01F8016BF9D193
:1001F00013F0080F1EBF10F8014BAD1C0C1B09D1EA
:100200006D1E58BF01F801CBFAD505E014F8016B5B
:1002100001F8016B6D1EF9D59142D6D370470000ED
:100220000023002400250026103A28BF78C1FBD8FF
:10023000520728BF30C148BF0B6070471FB509F097
:1002400032FC1FBD10B510BD00F0A6F91146FFF736
:10025000F5FF07F07DFF00F0C4F903B4FFF7F2FFEC
:1002600003BC00F0CBF900002C4B19680868B0E81B
:10027000F04F80F30988BFF36F8F4FF0000080F3D9
:10028000118870470000000008480068006880F38B
:1002900008884FF0000080F3148862B661B6BFF39F
:1002A0004F8FBFF36F8F00DF00BF00BF08ED00E08E
:1002B000DFF80C00016841F470010160704700BF75
:1002C00088ED00E0EFF30980BFF36F8F134B1A68DE
:1002D0001EF0100F08BF20ED108A20E9F04F1060CB
:1002E00009B44FF0500080F31188BFF34F8FBFF374
:1002F0006F8F08F0F9FC4FF0000080F3118809BC03
:1003000019680868B0E8F04F1EF0100F08BFB0EC95
:10031000108A80F30988BFF36F8F7047B400002004
:10032000EFF30580704700000948804709480047FF
:10033000FEE7FEE7FEE7FEE7FEE7FEE7FEE7FEE795
:10034000FEE7FEE704480549054A064B70470000F2
:10035000B95900088901000880680020806E0020DB
:10036000806A0020806A002053EA020C00F0698055
:100370002DE9F04B4FF00006002B1FBFB3FA83F5B9
:1003800003FA05F424FA05F65E4012BF1643B2FAEA
:1003900082F502FA05F4C5F120051EBF22FA05FC1C
:1003A00044EA0C04203556EA044C4FEA144418BFC2
:1003B000641C4FF000084FF00009904271EB030CF1
:1003C00039D3002919BFB1FA81F701FA07F6B0FA5B
:1003D00080F700FA07F6C7F120071EBF20FA07FCD6
:1003E00046EA0C062037B6FBF4FCA7EB0507103FE6
:1003F00007F01F0BCBF120060CFA0BFB2CFA06F6CC
:1004000044BFB3460026202FA4BF5E464FF0000B2A
:100410005BEA060C08BF4FF0010B19EB0B09ABFBB5
:10042000027C48EB0608C01B06FB02CC0BFB03CC8E
:1004300071EB0C01C1E70B46024641464846BDE858
:10044000F08B13B54FF000004FF00001AFF30080C8
:10045000BDE81C407047032A40F2308010F0030CC6
:1004600000F0158011F8013BBCF1020F624498BF07
:1004700011F801CB00F8013B38BF11F8013BA2F1A4
:10048000040298BF00F801CB38BF00F8013B11F01F
:10049000030300F02580083AC0F0088051F8043BBF
:1004A000083A51F804CBA0E80810F5E7121D5CBF2C
:1004B00051F8043B40F8043BAFF30080D20724BF5F
:1004C00011F8013B11F801CB48BF11F8012B24BFF3
:1004D00000F8013B00F801CB48BF00F8012B704742
:1004E00010B5203AC0F00B80B1E81850203AA0E8CF
:1004F0001850B1E81850A0E81850BFF4F5AF5FEA03
:10050000027C24BFB1E81850A0E8185044BF18C9B5
:1005100018C0BDE810405FEA827C24BF51F8043B5C
:1005200040F8043B08BF7047D20728BF31F8023BB0
:1005300048BF11F8012B28BF20F8023B48BF00F844
:10054000012B70474FF0000200B5134694469646C3
:10055000203922BFA0E80C50A0E80C50B1F12001D6
:10056000BFF4F7AF090728BFA0E80C5048BF0CC084
:100570005DF804EB890028BF40F8042B08BF7047E2
:1005800048BF20F8022B11F0804F18BF00F8012B54
:100590007047704770477047754600F02BF8AE46BD
:1005A00005006946534620F00700854618B020B57F
:1005B000FFF7C8FEBDE820404FF000064FF00007EF
:1005C0004FF000084FF0000B21F00701AC46ACE8FB
:1005D000C009ACE8C009ACE8C009ACE8C0098D4668
:1005E000704710B50446AFF300802046BDE81040C8
:1005F000FFF733BE004870472068002001491820EB
:10060000ABBEFEE726000200704700002DED108B08
:10061000764CDFED77BADFED77CA9FED77DA9FEDA5
:1006200077CA41F28835AE009FED758ADFED75DA45
:100630009FED75EADFED75EA9FED75FA4FF47A7775
:1006400042F21078DFED738A9FED739A08F06AF931
:100650002368012171489847236802217048984710
:10066000B2EE042AF0EE6B1AB3EE091AF0EE6C0A41
:10067000B0EE4D0A6B4807F055FDB2EE042AF0EEDD
:100680006B1AB3EE091AF0EE6C0AB0EE4D0A66482A
:1006900007F048FDB0EE082AF0EE4C1AB1EE041A4D
:1006A000FBEE0E0AB3EE0E0A604807F03BFDB7EE14
:1006B000002AF0EE4C1AB0EE6B1AFAEE040AB2EE13
:1006C000040A5B4807F02EFD2A463146B3EE0E1AA7
:1006D000F0EE480AB0EE6D0A564803F0A7FB2A4632
:1006E0003146B3EE0E1AF0EE480AB0EE6D0A5248EB
:1006F00003F09CFBB0EE4E3AF0EE6E2AB0EE4F2ABD
:10070000F6EE001AB6EE001AF0EE4C0AB3EE040A4A
:100710004A4804F0C7FC3A464146B0EE081AF6EEE5
:10072000000AB2EE090A464803F080FBB0EE683AD0
:10073000F0EE682AB0EE492AF0EE481ADFED419A51
:10074000F1EE040AB0EE691A9FED3FAA3F48B0EE01
:100750004A0A04F0A7FCDFED3EAA9FED3EBAB0EED8
:10076000683AF0EE682AB0EE492AF0EE481AB0EE88
:10077000481AF0EE6A0AB0EE4B0A374804F092FCD1
:10078000B0EE683AF0EE682AB0EE492AF2EE0E1AA0
:10079000B0EE691AF1EE040AB0EE4A0A2F4804F0EE
:1007A00081FCB0EE683AF0EE682AB0EE492AF0EE2D
:1007B000481AB0EE481AF0EE6A0AB0EE4B0A284822
:1007C00004F070FC00F0D4FA26A027A1884201D1E1
:1007D00000F0D6FE05F01EFA2448806B08F0BAF946
:1007E00008F0C0F8012007F019FD2FE7B001002044
:1007F000CDCCCC3D0000C8C20000C8420AD7233C83
:10080000000000000000204200002F440000FA45D4
:1008100000409C4600401C460060EA46200600203E
:1008200048060020106100205061002090610020E7
:10083000D0610020BC6600200C6700205C670020AF
:10084000B06700200000484200002A436C65002089
:10085000ACC52737E7FBA93DC06500201466002022
:1008600068660020544446004454370000000020CD
:100870008AB0084C6D464FF0FF3707AE3A466946DE
:10088000206808F06BFC09AB3246291D009801F086
:1008900057F8F3E70800002070B505460C46002D18
:1008A00009D0022C07D9FF22611E284601F00CF85E
:1008B000291901F8010C70BDF8B52D4C2D4821887F
:1008C0000A0A0270417061880A0A8270C170A188A8
:1008D0000A0A0271417194ED030ABDEEC00A10EEDE
:1008E000101A0A0A8271C171234E254F0090D6F862
:1008F00004C040F20F13002220493868E047214825
:1009000001881C480A0A0830027041700021817079
:10091000627F02F001022A43237C03F0010342EAD2
:100920004302237F03F0010342EA8302A37E03F024
:10093000010342EAC30294F8283003F0030342EAB9
:100940004312114B1B7803F0010342EA8312C27079
:1009500001710E4A1378437181719178C1710090D1
:10096000746840F21F13002204493868A047F8BD9C
:10097000F0620020B9010020B001002048060020EC
:10098000080000206C6400209D010020AC010020C4
:100990000FB49DF81D009DF81C1040EA0120164977
:1009A00048829DF81F009DF81E2040EA022088849E
:1009B0009DF821009DF8202040EA022000B200EEC0
:1009C000100AB8EEC00ADFED0D0A80EE201A81EDA4
:1009D000051A9DF8220000F001028A77C0F3400258
:1009E000CA84074AC0F3011111700649C0F34010D0
:1009F000087004B070470000F062002000007A44E4
:100A00009C0100209E0100202DE9F0412DED028B7C
:100A10004FF47A77294C9FED2A8AA4F124062169A4
:100A20007068284D081AB0F5487F23D32A69B0684A
:100A3000101A00D54042142818DAE068B0B93078AE
:100A4000A0B901203070F160EF80B5F902001E49B5
:100A500000EE100A1D48F8EEC00AB0EE480A04F095
:100A6000FFF9BDEEC00A10EE100AE882206970603E
:100A70002869B0603078002809D02069F168401AF0
:100A8000B0F5FA7F07D30020307028696061BDECB3
:100A9000028BBDE8F081EF80B5F902000A4900EE53
:100AA000100A0A48F8EEC00AB0EE480A04F0D8F975
:100AB000BDEEC00A10EE100AE882E8E7DC02002072
:100AC00000007A445C63002090610020B067002041
:100AD000FEE70000014801F0B7B800002006002042
:100AE000014801F0B1B8000020060020014801F0E3
:100AF000ABB8000048060020014801F0A5B800008E
:100B00004806002010B50B46002101614161416299
:100B100081610122C2610262016041608160C16045
:100B20000146184600F07EFF002803D0BDE81040C3
:100B300000F097BD10BD000010B50446491EC8B2B4
:100B400000EB400101EB0010074901EB800021465A
:100B5000FFF7D8FF204601F014FB2046BDE8104007
:100B6000022100F0DBBE00001062002010B58AB048
:100B70000C9C0191002A12D003930492002105914C
:100B8000082206928DF81C1021680891616809916D
:100B900000231A4601A908F0CFF90AB010BD02934C
:100BA000EBE704284FF0000070470020704700007A
:100BB00010B500220449054805F026FC0449034805
:100BC00005F014FC002010BD1C150020400800207A
:100BD0001C0D002038B5044621460C4805F006FCE3
:100BE0000A4805F0D7FB0A4800236A4621460068F8
:100BF00008F054FA009838B106494FF08050086068
:100C0000BFF34F8FBFF36F8F002038BD4008002027
:100C10000C00002004ED00E00020704710B50A46EB
:100C20000849D1F8BC12D1F81412002901D00120D2
:100C300010BD0146034805F0E7FBBDE81040014840
:100C400005F078BC400800208EB01C4E4FF0FF38F5
:100C500009AF424605A9306808F080FA059CA4F265
:100C6000052001280BD8142239466846FFF738FCC6
:100C7000134806A90EC905682046A847E9E7A4F568
:100C8000007107390ED0B4F5027FE2D11422394643
:100C90006846FFF725FC0B4806A90EC945682046A3
:100CA000A847D6E7142239466846FFF719FC0648DC
:100CB00006A90EC905682046A847CAE7000000201B
:100CC000FC01002058020020F40100208EB0184ED4
:100CD000184D4FF0FF3940F21F170DF124084A4616
:100CE00005A9306808F03AFA059C9DF8300000F03C
:100CF0000F032B80BC420CD1142241466846FFF7FB
:100D0000EFFB0D4806A90EC9D0F804C02046E04705
:100D1000E5E7012BE3D1142241466846FFF7E0FBEB
:100D2000064806A90EC9D0F80CC02046E047D6E711
:100D30000400002032030020CC010020D801002054
:100D400030B500200124094A002352F820108D8F6D
:100D500045B181F83E3052F820108B87401C0128A5
:100D6000F3DB30BD81F83E40F5E70000D401002000
:100D700010B52DED028BB9EE080A1E4880ED030A6E
:100D80001D4991ED090A80ED010A9FED1C8A80ED55
:100D9000048A1B49098800EE101AB8EE400A80ED5B
:100DA000020A9FED180A80ED050AF1EE080AB7EE77
:100DB000000A483003F0F8FE0E48F2EE040AB1EEE5
:100DC000080A183003F0F0FE0F49002008770222CD
:100DD000CA764877C87781F8290081ED038A0B49E4
:100DE000087001224A70888048808871BDEC028BAF
:100DF00010BD0000F46400201C630020000000000F
:100E00006C64002000C0A844F0620020980200201A
:100E10002DE9F041904DDFF848822946A88C0A88D8
:100E20008E4900269FED8F1ADFF83CC29CF81030E7
:100E30009FED8E0A8E4C1E2806D800EE902AF8EE02
:100E4000600AC1ED050A77E0012B1BD188482C30E0
:100E50000778BFB1B0F9040040F61E37F84203DC52
:100E600000F5005000B206E041F2E247B84202DB72
:100E7000A0F5005000B200EE900AF8EEE00AC1EDD5
:100E8000020A55E078489CF82870B0F90800012F54
:100E900002D0022F0FD038E0404200EE900AD1ED90
:100EA000021AF8EEE00A9FED732A40EE821AC1EDB5
:100EB000021AA67029E0A77817B9A2800127A770A7
:100EC000A78800EE907AF8EE600AC1ED020A01EE02
:100ED000900ADCED030AF8EEE11A9FED672A41EE75
:100EE000820ACCED030A10EE900A644FB84204DD8A
:100EF00070EEC10ACCED030A07E010EE900A4045FF
:100F000003D970EE810ACCED030AD1ED020A5C4FE1
:100F100010EE900AB84204DDDFED5A0AC1ED020A74
:100F200006E0F5EEC00AF1EE10FA01D281ED020AF8
:100F3000D1ED020AC1ED050A00EE902AF8EE600A32
:100F4000C4ED080A10EE900A4FF08B42904204DD87
:100F500070EEC10AC4ED080A07E010EE900A4045A1
:100F600003D970EE810AC4ED080AD1ED050AD4ED6B
:100F7000081A71EEE00AC4ED070A10EE900A404527
:100F800004D370EE810AC4ED070A07E010EE900A60
:100F9000904203DB70EEC10AC4ED070A34493A4FB0
:100FA000DFF8E8C0487809785BB3012B27D1E26904
:100FB000BA4203DA624501D284ED070A884209D3B6
:100FC000D4ED070A324804F015F8BDEEC00A85EDED
:100FD000040A667095ED010A2D482E49F8EEC00A04
:100FE00095ED040A5438B8EEC00A04F081F8BDEE5D
:100FF000C00A10EE100A28846078401C6070BDE8BA
:10100000F081E269BA4203DA624501D284ED070A4F
:1010100088420AD31E48D4ED070AA83803F0EAFF35
:10102000BDEEC00A85ED040A667095ED010A0B4815
:101030001949F8EEC00A95ED040A7830B8EEC00AF6
:1010400004F056F8BDEEC00A10EE100A288460784D
:10105000401C6070D3E700006C640020F464002042
:10106000000080C500000046F06200200000000083
:101070006C0200200AD7233C0AD7A33C00F07F452E
:1010800000401C4500401C4500002041000020C1DC
:10109000686600205C0100201C01002010B531486A
:1010A0003149324A037C012B11D101F12C031C7808
:1010B0006CB15888B4EE001A00EE100AF8EE400A3F
:1010C0009FED2B0A10EE810A82ED030A1EE0B0F9B3
:1010D0000600D1ED060A00EE100AB8EEC00A20EEB6
:1010E000200A244B10EE100A984202DDB2EE060AE6
:1010F00006E010EE100A204B984201D9BAEE060A1B
:10110000D2ED030A30EE800A82ED030AD068B0F116
:10111000804F04DDB0EE000A82ED030A06E0174BB3
:10112000984203D9BAEE0C0A82ED030A91ED040A43
:101130001348BDEEC00A10EE103A037091ED050A97
:10114000BDEEC00A10EE103A437091ED030A00EDB7
:10115000040A91ED020A00ED030A92ED030A00ED84
:10116000050A10BDF06200206C020020F46400202B
:101170000000804500003041000030C1000060C127
:101180005463002010B5FFF789FFBDE8104000F060
:1011900001B800000648817E0648012905D090F874
:1011A0002200012803D1FFF733BE0021818470475C
:1011B000F06200206C64002010B504462DED028B17
:1011C000606808F0FFFB41EC100B06F068FFB0EE22
:1011D000408AF0EE608A206808F0F4FB41EC100BC6
:1011E00006F05DFFB0EE401AF0EE601A53EC182BDB
:1011F00051EC110B08F0ACFA06D29FED090A84ED10
:10120000000ABDEC028B10BD94ED000A9FED051A9B
:10121000F0EE400A40EE410AC4ED000AF1E700009A
:1012200000000000CDCC4C3E014800F0DDBF0000C6
:10123000E0070020014800F0D7BF00002007002091
:10124000014800F0D1BF0000800700200168CAB249
:10125000103A1823B2FBF3F2064B9B5CC3656FF3A5
:101260000901032A02D9091D816500E08165806DAD
:1012700070470000E49B000810B5014600208A6A10
:101280008B694FF0C074002B0ED0B3F5005F1AD0FD
:1012900062B3012A2AD0022A28D0032A03D1C96ABC
:1012A000C90100D5012010BD1AB1012A06D0022AB9
:1012B000F9D1C96AC901F6D5012010BDC96AA14298
:1012C000FBD1012010BD52B1012A0AD0022A06D05A
:1012D000032AF7D1C96AA142F4D1012010BD01202F
:1012E00010BDC96AC901FBD5012010BD012010BD88
:1012F00030B50468256825F480252560046863609E
:101300008368402B04D0036899600068C26030BDD8
:1013100003689A600068C16030BD000008B508F03D
:1013200067F8009006A007A1884201D100F00CF8F0
:1013300004F04AFB0521684607F0C0FBF2E7000015
:1013400054444600445437002DE9F047824B187846
:1013500001287DD100241C708048A0F11607017877
:10136000427841EA0221C1F30A01A1F58061398086
:10137000D508827845EA4215C5F30A06A6F58066C7
:101380007E80C578920942EA8505027945EA822580
:10139000C5F30A05A5F58065BD804FEA520C427978
:1013A0004CEAC21CCCF30A0CACF5806CA7F806C062
:1013B0006431C82900D83C80761D0A2E00D87C8074
:1013C0006D1D0A2D00D8BC800CF1050CBCF10A0F74
:1013D00000D8FC8091093972C2F301167E728279BD
:1013E000C57942EA05227A81027A457A42EA0522E3
:1013F000BA81827AC57A42EA0522FA81027B3A747E
:10140000427B7A74827BC57B42EA05227A82027C27
:10141000407C42EA0020A0F5806000B2B88200F56E
:101420002570B0F5A56F00D9BC820320DFF830919C
:101430004C4D4FF0010803292DD166B3F98849427C
:101440002980B98849426980022E06D0032E00E027
:101450007DE008D0012E0BD014E085F81A806C775F
:101460005C6268740EE0AC766C776E745C6209E066
:10147000AC7685F81D80586A322802DA401C586222
:1014800000E06E742C747888E88038882881B88AE7
:101490004000A88049E002293CD1C6B3F888404208
:1014A0002880B888404268806E74B7F9020008F05E
:1014B00038F99FED2D1B53EC112B08F085F908F03E
:1014C00001F9E8803888288185F81080284890ED57
:1014D000000A284880ED040A022E04D0012E0BD009
:1014E000032E15D021E0B88A00EB8000A9F80A008D
:1014F000AC7685F81D8018E0AC7685F81D80B88A3A
:1015000000EB8001C1EB0040A9F80A000DE001E00A
:101510006C770AE0012901D1032E0DD02C742C80A8
:101520006C80AC802C81EC806874687C1249012846
:1015300007D003280AD00AE002F0B4FE03F09EFEB2
:10154000F3E789F80C8081F8048000E00C710B4807
:101550000068BDE8F0470047040200205A640020FC
:10156000CC020020F06200209A9999999999C93F7C
:10157000A8010020F46400202C030020CC010020EE
:1015800012220249024802F015BB00005A640020F2
:10159000D80600207047000010B52248224C017B7D
:1015A000012902D1407B012813D00020E080B4F94A
:1015B00002001F4900EE100A1E48F8EEC00A9FED17
:1015C0001B0A03F04DFCBDEEC00A10EE100AE082CB
:1015D00010BDA068401FA06094ED040AF8EEC00A98
:1015E00000EE100A1448B8EEC00A03F003FDBDEE89
:1015F000C00A10EE100A00B2E080B4F9021000EE4A
:10160000101A0B49F8EEC00A00EE100A0948B8EEAD
:10161000C00A03F025FCBDEEC00A10EE100AE082FD
:1016200010BD0000CC0200205C6300200000000020
:1016300090610020B06700205C67002010B507486B
:10164000407B012803D0BDE8104004F037B903F017
:1016500037FABDE81040FFF7D7B90000CC020020F0
:10166000704772B6FEE7704710B500F047F81D48A6
:101670001D4C90ED000AF1EE400AFDEEE00A10EE7E
:10168000900A00B22081BDEEC00A10EE101A21852A
:10169000B4F9021000EE101A1449F8EEC00A00EE78
:1016A000100A1348B8EEC00A03F0DAFBBDEEC00A18
:1016B00010EE100AE082B4F922000E4900EE100A82
:1016C000B4F92800F8EEC00A00EE100A0A48B8EE95
:1016D000C00A03F0C5FBBDEEC00A10EE100AE0869A
:1016E00010BD0000200300207C630020106100205A
:1016F000BC660020506100200C67002009480A49A0
:10170000407F002802D0094AD26822B19FED080A22
:1017100081ED000A70470128FCD19FED060A81ED9A
:10172000000A7047F062002020030020DC02002045
:101730000000000000C0C145FEB504460020009036
:101740000190029004F12001204602F0E7FD94EDA3
:10175000080A04F1300104F1280003F02BF994ED9C
:10176000090A04F13C0104F1340003F023F92834A0
:10177000444D94F90800D4ED000AC0EBC00294ED8A
:10178000031A94F9140005EB820303EB800120EEA9
:10179000810AD1ED001ADDED002A40EE212AD4EDB8
:1017A000041A94F9151003EB810360EEA10A93ED7E
:1017B000002A40EE822A94F9093094ED012AC3EB05
:1017C000C30305EB830505EB800622EE011A96EDB7
:1017D000003A41EE032A05EB810562EE211A95EDF0
:1017E000002A41EE822A274E9DED012AC43606EBDF
:1017F000820505EB800797ED003A00EE032A05EB22
:10180000810595ED003A00EE832A06EB830505EB92
:10181000800696ED003A01EE032A05EB810595ED71
:10182000003A01EE832A184D9DED023A05EB820243
:1018300002EB8006D6ED003A00EE233A02EB81027D
:1018400092ED000A00EE803A05EB830202EB800085
:1018500090ED000A01EE003A02EB810090ED000AE3
:1018600001EE803AB0EE080AC2EE800A44ED0A0AA0
:10187000C2EE000A44ED090AC3EE000A44ED080A6C
:10188000FEBD0000049C00088C9D000800220D4B4A
:10189000002904D0012907D002290ED109E0D96816
:1018A000C14001F0010208E09968C14001F0010265
:1018B00003E01969C14001F001020AB1012070473B
:1018C00000207047BC63002010B5054C03E010F801
:1018D000013B5340E25C491E4B1CF8D1104610BD41
:1018E000509E000810B50B480168001D0468001DDB
:1018F0000068084400280BD00822074902F0B6FA15
:10190000054920460422BDE81040103102F0AEBA6D
:1019100010BD0000107AFF1F7600002090F82020F4
:10192000012A07D0022A05D0416A41F48021416290
:1019300001207047006842690A43426100207047F5
:10194000F0B590F820500468A468012D07D0022D4E
:1019500005D0416A41F4802141620120F0BD04F0CC
:10196000806504F00066354301D1E50053D5C4F32A
:1019700001640125A5401D608B684FF4C0759BB1C3
:10198000CE6805EB041733434E6843EAC603066886
:10199000F3514FF4C273076803EB04130E69FE5052
:1019A000097D012909D00DE00E88CB6805EB0417ED
:1019B00043EA46530668F351EBE70168CE5846F414
:1019C0008076CE501179D379567941EA03619379C3
:1019D0001B0443EA062319434FF4C676036806EB5B
:1019E000041699511178D37841EA036193785278BB
:1019F0001B0443EA022211434FF4C473026803EB51
:101A00000413D150006805EB0411425842F0010262
:101A100042500020F0BD416A41F4001141620120B2
:101A2000F0BD000010B590F82020012A07D0022A4E
:101A300005D0416A41F480214162012010BD3C483B
:101A400000F50070026842F001020260026822F4B0
:101A50007C52026002684B6A42EA032202600A7DFD
:101A600002F01F0301229A40C3699343C361A0F5AA
:101A70000070CB69B3B9D0F80C329343C0F80C3284
:101A80008C894B6864F31F434C6900EBC404C4F8B1
:101A900040320C890B6864F31F434C6900EBC404AB
:101AA000C4F84432CB69012B16D1D0F80C32134361
:101AB000C0F80C320C884B6864F31F434C6900EB90
:101AC000C404C4F840320C89CB6864F31F434C69EA
:101AD00000EBC404C4F844328B697BB1D0F8043203
:101AE0001343C0F804320B6973B1D0F814321343B6
:101AF000C0F81432096A01290CD010E0D0F8043281
:101B00009343C0F80432EEE7D0F814329343C0F8A0
:101B10001432EFE7D0F81C121143C0F81C12D0F8B1
:101B2000001221F00101C0F80012002010BD0000D9
:101B300000640040704770B590F82040012C07D039
:101B4000022C05D0416A41F480214162012070BD20
:101B500021B104682469A4072AD003E00468E4687A
:101B6000A4071FD04FF4D874056804EB01142D5955
:101B700005F0040595600DB305682D59ED08556015
:101B800005682C5904F00204D4604FF4DA74056837
:101B900004EB01142E5906F00F06082E13D3082566
:101BA000156114E0416A41F400114162012070BDE9
:101BB000416A41F400114162012070BD05682D5950
:101BC0006D0D1560DCE72D5905F00F0515610568F1
:101BD0002D59C5F30725956105682C59240C5461CE
:101BE0004FF4DC72046802EB0112A4581C70046804
:101BF000A458240A5C700468A458240C9C700468DF
:101C0000A258120EDA704FF4DE72046802EB011271
:101C1000A4581C710468A458240A5C710468A45870
:101C2000240C9C710468A258120EDA7131B100685C
:101C3000016941F020010161002070BD0068C168A8
:101C400041F02001C160F7E72DE9F05F054600246F
:101C500028684669D0F804908768D0F80CA0D0F8BE
:101C600010B0D0F81880F10748D0F90714D001213E
:101C70008160B80703D5284600F0B0FA0CE0780779
:101C800002D54FF4006407E0380702D54FF48054C2
:101C900002E0284600F0A1FAF80516D529684FF4AD
:101CA00080708860B80503D5284600F099FA0CE0EA
:101CB000780502D544F4005407E0380502D544F411
:101CC000804402E0284600F08AFAF80316D5296815
:101CD0004FF480308860B80303D5284600F082FABC
:101CE0000CE0780302D544F4004407E0380302D541
:101CF00044F4803402E0284600F073FA300707D538
:101D00005FEACA6004D544F4007429681020C860F2
:101D100070074FF0080707D55FEA0A7004D52868F6
:101D2000C760284600F0C8F9B00706D52868C06823
:101D3000800702D0284600F0C1F9700607D55FEA97
:101D4000CB6004D544F48064296810200861B00693
:101D500007D55FEA0B7004D528680761284600F0B4
:101D60000DFAF00606D528680069800702D02846DB
:101D700000F005FAB00308D55FEAC96005D5296807
:101D800010204860284600F0FBF9F00307D55FEA11
:101D9000097004D528684760284600F024FA30040A
:101DA00046D55FEA497040D5F00504D55FEAC870B2
:101DB00001D044F00104B00504D55FEA887001D574
:101DC00044F00204700504D55FEA487001D544F080
:101DD0000404300529D518F0700F26D008F07000E3
:101DE000402815D006DC102809D020280AD0302839
:101DF00016D10AE050280ED0602811D10EE044F030
:101E000008040DE044F010040AE044F0200407E068
:101E100044F0400404E044F0800401E044F48074A1
:101E20002868816921F07001816129680420486077
:101E3000002C05D0686A204368622846FFF77AFEC6
:101E4000BDE8F09F70B50446002C03D094F8200044
:101E500010B104E0012070BD204600F09DF820681C
:101E6000016841F00101016000F042FC05460526D1
:101E70000CE000F03DFC401B0A2807D9606A40F4E2
:101E80000030606284F82060012070BD20684068E6
:101E9000C007EED02068016821F00201016000F067
:101EA00027FC05460CE000F023FC401B0A2807D95C
:101EB000606A40F40030606284F82060012070BDE8
:101EC000206840688007EED4207E01283FD020683B
:101ED000016821F080010160607E01283DD020680A
:101EE000016821F040010160A07E01283BD02068FC
:101EF000016821F020010160E07E012839D02068CE
:101F0000016841F010010160207F012837D020686E
:101F1000016821F008010160607F012835D0206848
:101F2000016821F004010160D4E902010843D4E909
:101F30000412114308436168491E08432168C861BF
:101F400000206062012084F82000002070BD20681D
:101F5000016841F080010160BEE72068016841F03E
:101F600040010160C0E72068016841F02001016084
:101F7000C2E72068016821F010010160C4E7206811
:101F8000016841F008010160C6E72068016841F07E
:101F900004010160C8E700002DE9F04186B0044665
:101FA000142101A8FEF7CEFA3E4B3F4ADFF8F0803D
:101FB000186821683C4C03260227401C103200257B
:101FC0004FF0090C41452FD11860012807D1106846
:101FD00040F000701060106800F000700090206801
:101FE00040F008002060206800F008000090019692
:101FF000029703950496CDF814C001A92B4800F070
:102000008FFA00220521132000F0E6FB132000F0D8
:10201000D5FB00220521142000F0DEFB142000F087
:10202000CDFB06B0BDE8F081DFF884804145F8D1F2
:10203000116841F080611160116801F080610091C8
:102040001860012807D1106840F000701060106817
:1020500000F000700090206840F0020020602068CE
:1020600000F0020000906020019002970395049612
:10207000CDF814C001A90F4800F052FA0022052142
:102080003F2000F0A9FB3F2000F098FB0022052133
:10209000402000F0A1FB402000F090FBC1E70000D1
:1020A000006400403C00002030380240000C024038
:1020B000006800400004024070470000F8B5294B5A
:1020C00002680021284D9A4201D1297001E00121C6
:1020D00029702978254C01EB410202EB011104EB38
:1020E000810202F1440328320021FFF724FD287801
:1020F00004F1980600EB400101EB001104EB8101B3
:1021000000EBC000283106EB80001C22FEF7E8F946
:10211000287800EB400202EB001204EB820200EB95
:10212000C00106EB8101936C526CC1E9072388B1B1
:102130000F4800236A46006806F0B0FF00980028A8
:1021400007D00C494FF080500860BFF34F8FBFF3AA
:102150006F8FF8BD0848314600236A46006806F0D4
:102160009DFFEBE700640040B801002010620020F2
:102170000400002004ED00E00000002070477047DC
:10218000704770B5044694F82000012805D0606AB5
:1021900040F400206062012070BD022084F820001D
:1021A0002068016821F00101016000F0A1FA0546F4
:1021B0000DE000F09DFA401B0A2808D9606A40F43F
:1021C00000306062052084F82000012070BD206886
:1021D0004068C007EDD1606270BD704770477047BE
:1021E00070477047704770472DE9F84304464FF039
:1021F0000009CDF800906F484FF416510068B0FB0D
:10220000F1F7A56D2E6894F85C00082202FA00F13F
:10221000314210D02068016849070CD5016821F0CF
:102220000401016094F85C0002FA00F1A960606D9D
:1022300040F00100606594F85C104FF0010808FA66
:1022400001F0304208D021684969090604D5A86028
:10225000606D40F00200606594F85C1004208840D6
:10226000304208D021680968890704D5A860606DEC
:1022700040F00400606594F85C1010208840304203
:1022800020D02168096809071CD5A860206801686A
:1022900049030CD50068000304D4216C91B1204699
:1022A00088470FE0A16C69B1204688470AE00168C1
:1022B000C90503D4016821F008010160216C09B14E
:1022C0002046884794F85C102020884030424CD04B
:1022D00021680968C90648D5A86094F83500052822
:1022E0000BD020680168490330D50068000328D46A
:1022F000616C51B32046884737E02068016821F0BF
:10230000160101602068416921F080014161206C63
:1023100008B9A06C20B12068016821F008010160B3
:1023200094F85C103F208840A86084F8358084F8D9
:102330003490216D00293BD001B02046BDE8F04328
:102340000847E16B09B1204688470EE00168C905DE
:1023500007D4016821F01001016084F8358084F809
:102360003490E16B09B120468847606D00281FD08A
:10237000606DC00714D0052084F83500206801681E
:1023800021F0010101600098401C0090B84203D880
:1023900020680068C007F6D184F8358084F834904E
:1023A000E16C002904D001B02046BDE8F0430847A5
:1023B000BDE8F883B00000202DE9F041044600F0AC
:1023C00097F905465CB1022084F83500002684F8B0
:1023D00034602068016821F0010101600DE00120F6
:1023E000BDE8F08100F084F9401B052805D92020C4
:1023F0006065032084F83500F2E720680068C007B4
:10240000F0D121680A6820480240D4E9010318434A
:10241000D4E903352B43184363691843A369184370
:10242000E3691843236A18431043626A042A03D1FC
:10243000D4E90B231A43104308602068406920F058
:102440000700656A29460543012704290DD1A06AC2
:102450000543E06A48B12046FEF70EFF28B1402050
:10246000606584F835700120BAE720684561204630
:10247000FEF7ECFE94F85C203F2191408160666598
:1024800084F835700020ABE73F8010F02DE9F04173
:1024900004460025A66D94F8340001280DD00120D3
:1024A00084F8340094F835700020012F07D084F8A8
:1024B000340002252846BDE8F0810220FBE7022710
:1024C00084F8357060652046FEF712FF94F85C10C2
:1024D0003F208840B0602068016841F0160101602B
:1024E000206C20B12068016841F00801016020687B
:1024F000016841F001010160DCE7000070B50446AD
:1025000000F0F6F80546601C02D004480078044448
:1025100000F0EEF8401BA042FAD370BDA4000020EA
:102520002DE9F84F0022DFF89C914FF001080327B6
:102530004FF00F0C09F1040AA9F1040B08FA02F597
:102540000B682B40AB426ED10C7904F00304012CD4
:1025500001D0022C15D18668540007FA04FE26EA41
:102560000E06D1F80CE00EFA04FE4EEA060EC0F894
:1025700008E04468AC430D79C5F300159540254348
:1025800045600C79E443A40708D0C568540007FAF5
:1025900004F6B5438E68A6402E43C6600C7904F05D
:1025A0000304022C11D1D40800EB8406356A5407C9
:1025B000E40E0CFA04FE25EA0E05D1F810E00EFA3E
:1025C00004FE4EEA050EC6F820E00568540007FA3E
:1025D00004F6B5430E7906F00306A6402E430660C6
:1025E0004C6814F4403F67D0374C256845F480456B
:1025F0002560246804F480440094344C22F00305E0
:102600002E19D6F8085894074FEA147E0CFA0EF4E7
:10261000A5432F4CA04201D1002424E02D4CA04220
:1026200002D101241FE047E02B4CA04201D102243B
:1026300019E02A4CA04201D1032414E0284CA04206
:1026400001D104240FE0274CA04201D105240AE067
:10265000254CA04201D1062405E0244CA04201D122
:10266000072400E0082404FA0EF42C43C6F80848B6
:10267000D9F800409C434D68ED0200D51C43C9F8D1
:102680000040DAF800409C434D68AD0200D51C4381
:10269000CAF80040DBF800409C434D68AD0300D50C
:1026A0001C43CBF80040074D083D2C689C434E6806
:1026B000F60300D51C432C60521C102AFFF43EAFD9
:1026C000BDE8F88F083C014044380240003001402A
:1026D000000002400004024000080240000C0240DA
:1026E000001002400014024000180240001C02408A
:1026F0000148806870470000A400002002488168FB
:102700000278114481607047A400002010B50B4886
:10271000016841F400710160016841F48061016069
:10272000016841F480710160032000F075F80F200A
:1027300000F006F800F026F8002010BD003C024032
:1027400070B504460D4D4FF47A712878B1FBF0F066
:102750000B490968B1FBF0F001F018FA08B101204B
:1027600070BD102C07D200222146501E00F034F814
:102770006C60002070BD012070BD0000A40000202E
:10278000B000002082B00C48016841F48041016033
:10279000006800F4804001900748001F016841F084
:1027A00080510160006800F08050019000220F21EC
:1027B000901E02B000F010B844380240002809DB37
:1027C00000F01F02012191404009800000F1E0204B
:1027D000C0F8001170470000F0B40D460D4B1B68A7
:1027E000C3F30223C3F10704042C00D90424191DE8
:1027F000072901D2002300E0DB1E012606FA04F1BE
:10280000491E294099409E40761E16403143F0BC37
:1028100005F035BC0CED00E000F00701054A10683A
:102820004FF6FF03184040EA0120034908431060B7
:10283000704700000CED00E00000FA0570470068EA
:1028400041620020704770B50368586A002907D0BC
:102850009C6A00EB144400204FF48275491E0AE084
:1028600040EA024098620DE005EB80069E5904EBB9
:102870001644401CC0B28842F6D305EB810144EAFD
:1028800002405850002070BDD0F8E00404F0E0B9D8
:1028900001EBC10200EB8202D0F8E004126A04F0FE
:1028A000FEB801EBC10200EB8202D0F8E004D2F8DE
:1028B000602204F065B9D0F8E00404F0CBB90A0650
:1028C00001F00F0101EBC10100EB810101D51431D1
:1028D00001E001F51571006805F02EB970B50446E8
:1028E0000B0601F00F0000EBC00104EB81014FF07B
:1028F00001024FF0000502D514314A7002E001F5E3
:1029000015714D70087094F89404012808D084F86B
:102910009424206804F024FE84F89454002070BDB0
:10292000022070BD70B5044601F00F00227990427C
:1029300001D9012070BD0B0601F00F0101EBC101AF
:1029400004EB81014FF001024FF0000502D5143174
:102950004A7002E001F515714D708D70087094F8A1
:102960009404012808D084F89424206804F062FFBD
:1029700084F89454002070BD022070BD01F00F0156
:1029800001EBC10100EB8100D0F8680270472DE92E
:10299000F04104460F0601F00F0000EBC00104EB0C
:1029A00081014FF001064FF0000502D514314E7041
:1029B00002E001F515714D700870C2F30A028A60D9
:1029C0000B714A7802B14883022B00D14D7194F803
:1029D0009404012809D084F89464206804F002FD6E
:1029E000284684F89454BDE8F0810220FBE710B536
:1029F00001F00F0404EBC40100EB810101F5157136
:102A0000CA600B6100234B614B700C708379012B02
:102A100000D1CA618279006804F064FF002010BD13
:102A200070B504460D46217905F00F00884201D9A2
:102A3000012070BD29064FF000064FF0010206D5B7
:102A400000EBC00104EB810114314A7006E005EB94
:102A5000C50104EB810101F515714E708A70087093
:102A600094F89404012807D084F89424206804F092
:102A70000DFF280702D007E0022070BDA17904F203
:102A80009C42206804F0ACFE84F89464002070BD81
:102A900010B501F00F0404EBC40100EB8101143107
:102AA000CA600B6100234B6101234B700C7083796A
:102AB000012B00D1CA618279006804F013FF002065
:102AC00010BD2DE9F84F04462568284605F0DEF8CC
:102AD00000287ED1206805F005F9002879D0D5F8C6
:102AE0000808C0F30D20C4F8D404206805F0FAF8F3
:102AF000800704D52068416901F002014161206826
:102B000005F0F0F8C10604F29C40009035D520682D
:102B1000816921F0100181612F6A07F00F0000EB3D
:102B2000C00004EB800606F51576C7F34340022883
:102B300002D0062812D01BE047F6F070074217D0EB
:102B4000C7F30A1217462846F16805F0CFF8F06877
:102B50003844F06070693844706109E00822284602
:102B6000009905F0C3F87069C7F30A110844706151
:102B70002068816941F010018161206805F0B2F898
:102B800000034FF0080B4FF000094FF001085ED52D
:102B90000026206805F085F8824655E05FEACA7095
:102BA0004FD0F1B2206805F095F80746F80707D036
:102BB00005EB4610C0F8088B3146204602F030F88D
:102BC000380709D505EB4610C0F808BB314620464A
:102BD00000E0F8E102F000F8F80604D505EB461134
:102BE0001020C1F8080BB8071CD56869000605D588
:102BF000D5F8040840F48061C5F8041806EBC60057
:102C000004EB800000F51570C178012905D180F82A
:102C10000390F1B2204600F0DCF905EB46110220EA
:102C2000C1F8080BB80604D505EB46102021C0F802
:102C3000081BB80405D505EB46104FF40051C0F849
:102C4000081B761C4FEA5A0ABAF1000FA6D1206879
:102C500005F048F840036CD5206805F01BF8824663
:102C6000002663E05FEACA705DD0F1B2206805F02B
:102C70001FF80746F80723D006F00F0108FA01F005
:102C8000D5F834188143C5F8341805EB4610C0F860
:102C90000889A07901280FD106EBC60004EB80005B
:102CA000D0E907211144016236B9606A20B9206871
:102CB0000121009A04F094FDF1B22046FFF7E8FDEF
:102CC000380703D505EB4610C0F808B9F80604D557
:102CD00005EB46111020C1F80809780604D505EB6C
:102CE00046104021C0F80819B80716D531462846C5
:102CF00004F09AFF06EBC60004EB80001430C178A4
:102D0000012905D180F80390F1B2204600F05DF969
:102D100005EB46110220C1F80809380603D53146F3
:102D2000204601F0EFFF761C4FEA5A0ABAF1000F75
:102D300098D1206804F0D6FF002811DAD5F80408ED
:102D400020F00101C5F8041894F8CC04012829D01A
:102D5000204600F006FA2068416901F00041416117
:102D6000206804F0BFFF00050BD5D5F80808C007A0
:102D700002D0204600F038FA2068416901F4006171
:102D80004161206804F0AEFFC00461D5D5F80408A5
:102D900020F00101C5F804181021206804F044FF58
:102DA000002120E084F8CC9400212046FFF746FD66
:102DB000D1E705EB411000F510604FF67F328260DD
:102DC000036823F400130360C0F80822D0F800223F
:102DD00022F40012C0F80022D0F8002242F0006273
:102DE000C0F80022491C20798842E2D8D5F81C0896
:102DF00040F00111C5F81C18E07B60B1D5F88408DB
:102E000040F00B01C5F88418D5F8440840F00B01D8
:102E1000C5F844180CE0D5F8140842F22B01084319
:102E2000C5F81408D5F8100840F00B01C5F81018C3
:102E3000D5F8000820F4FE61C5F80018A1792068D3
:102E4000009A04F0CDFC2068416901F48051416191
:102E5000206804F047FF800415D5206804F004FBC7
:102E6000206804F003FFE07100F020FB0146E279E6
:102E7000206804F0A1FF204600F05CF92068416959
:102E800001F400514161206804F02CFF000707D5D0
:102E9000204600F06AF92068416901F008014161AB
:102EA000206804F01FFF000615D5A86920F08001F6
:102EB000A96101260CE006EBC60004EB800090F847
:102EC0005702012803D1F1B22046FFF7F8FC761C27
:102ED0002079B042EFD8206804F004FFC0021FD56B
:102EE000012615E005EB4610D0F8001906EBC600E8
:102EF00004EB8000027E012A09D1002907DA80F85C
:102F00001780F0B240F080012046FFF7D8FC761C15
:102F10002079B042E6D82068416901F4801141610E
:102F2000206804F0DFFE800230D5012026E005EBAA
:102F30004011D1F8001B00EBC00204EB820292F8B2
:102F40005832012B19D1002917DA94F8D434C1F37F
:102F5000004103F001038B420FD182F85782A96927
:102F600041F08002AA616969090606D4D5F804080F
:102F700040F40070C5F8040803E0401C2179814248
:102F8000D5D82068416901F400114161206804F03E
:102F9000A9FE400007D52046FFF776FC206841696E
:102FA00001F080414161206804F09CFE40070AD591
:102FB00020684568680702D52046FFF77CFC20683A
:102FC000416829434160BDE8F88FD0F8E00403F080
:102FD00094BED0F8E00403F0A5BEF8B50446002C7A
:102FE00005D0266894F89504002510B106E001206C
:102FF000F8BD84F89454204600F05AF8032084F871
:103000009504B6F1A04F00D1A571206804F0E2FB51
:10301000207C8DF8000094E80F0004F033FA0226BB
:1030200018B184F895640120F8BD0021206804F0EF
:103030007CFE18B184F895640120F8BD00210127B9
:103040000CE001EBC10004EB800047750175C18500
:103050000576C56105624562491CC9B2207988427E
:10306000EFD800210DE001EBC10004EB800000F57A
:1030700015704570017005718560C5600561491C5A
:10308000C9B220798842EED8207C8DF8000094E8FF
:103090000F0004F0E5FA18B184F895640120F8BD3A
:1030A000657484F89574206804F0CCFA0020F8BDAB
:1030B00010B586B00446142101A8FDF743FA206834
:1030C000B0F1A04F2FD100211848026842F0010250
:1030D0000260006800F0010000904FF4C0500190C1
:1030E000022002900391032004900A20059001A978
:1030F0000F48FFF715FA0D48001D016841F08001E7
:1031000001600A481430016841F4804101600068A0
:1031100000F480400090002205214320FFF75CFB73
:103120004320FFF74BFB06B010BD000030380240D3
:103130000000024070B504460125E07900280ED059
:10314000022801D0FEF78DFA2946D4F8E00403F0F6
:103150005BFED4F8E004BDE8704003F00DBE00252E
:10316000F2E7D0F8E00403F038BED0F8E00403F052
:103170003EBE10B5044694F8940401280AD00120FC
:1031800084F894046174206804F0FFFD002084F842
:10319000940410BD022010BDD0F8E02400F29C4140
:1031A000104603F03DBE10B50446206894F8941410
:1031B000012909D0012184F89414C168490609D570
:1031C000617B012902D005E0022010BD816B41F432
:1031D00080318163206804F001FD206804F024FA46
:1031E000002084F8940410BD10B50446D4F8E0041F
:1031F00003F058FE2068D0F8001E41F00101C0F82D
:10320000001EE07A002804D00248016841F006015F
:10321000016010BD10ED00E02DE9F84304464FF0C9
:10322000010820684FF00007C10701D140072BD5E6
:10323000DFF81891C9F86870FFF75AFA0646444D4E
:1032400007E0FFF755FA801B022802D90320BDE8EA
:10325000F88328680001F4D46068217A800140EA8C
:1032600001703B4984310860C9F86880FFF740FA73
:10327000064606E0FFF73CFA801B022801D903202E
:10328000E5E728680001F5D52078800753D5304858
:103290004030016841F080510160006800F08050CA
:1032A00000902C4D286840F480702860FFF720FAC9
:1032B000064606E0FFF71CFA801B022801D903200E
:1032C000C5E72868C005F5D5214D7035286800F49C
:1032D0004070F8B1A18901F4407181421AD0286888
:1032E00020F440701C49C1F800800F6028602868F5
:1032F000C0070FD0FFF7FCF9064641F2883706E019
:10330000FFF7F6F9801BB84201D903209FE7286830
:103310008007F5D5E0680E49C0F301220831032A81
:103320000BD0086820F4F81008602868A189C1F360
:103330000B0108432860002089E70A68074B22F444
:10334000F812184002430A60EFE70000000047420D
:103350000038024000700040400E4742FFFCFF0F63
:103360002DE9F04704460D46002C13D0DFF82891D4
:10337000D9F80000EFB200F00700A8420CD289F89B
:103380000070D9F8000000F00700A84204D0012026
:10339000BDE8F0870120FBE72068404E810712D589
:1033A000400703D5306840F4E050306020780007D3
:1033B00003D5306840F4604030603068A16820F088
:1033C000F000084330602078C00731D0334960688E
:1033D0000839012808D002280BD0032809D0096831
:1033E00089070BD40120D3E70968890306D401209B
:1033F000CEE70968890101D40120C9E7316821F0CD
:10340000030101433160FFF773F9804641F2883AC6
:1034100007E0FFF76DF9A0EB0800504501D9032044
:10342000B6E73068616800F00C00B0EB810FF0D1B6
:10343000D9F8000000F00700A84209D989F8007007
:10344000D9F8000000F00700A84201D001209FE752
:103450002078400705D53068E16820F4E050084343
:1034600030602078000706D53068216920F460407C
:1034700040EAC100306000F03FF83168084AC1F30B
:103480000311515CC8400749086007480068FFF70E
:1034900057F900207CE70000003C02400838024059
:1034A000EC9B0008B0000020A80000200148006844
:1034B00070470000B000002000B5FFF7F7FF044997
:1034C0000968044AC1F38221515CC84000BD000074
:1034D00008380240FC9B000800B5FFF7E7FF0449ED
:1034E0000968044AC1F34231515CC84000BD000084
:1034F00008380240FC9B000810B51748006810F01F
:103500000C01164816D0164B042912D0082911D1E7
:10351000114C241F216801F03F02216849020AD59D
:103520002068C0F38810A0FB03010023FCF71CFFF8
:1035300009E0184610BD21680023C1F38811A1FBE2
:103540000001FCF711FF2168C1F30141491C49004A
:10355000B0FBF1F010BD0000083802400024F40078
:10356000001BB7002DE9F84F0446002C13D020783B
:10357000DFF8A083C007A8F1040556D008F10400C5
:103580000168C1F3810101290CD00068C0F38100FA
:10359000022803D00DE00120BDE8F88FD8F8000024
:1035A000400206D5286880033FD5606870BB0120C3
:1035B000F2E76068B0F5803F10D0B0F5A02F12D0D0
:1035C000286820F480302860286820F48020286053
:1035D0006068E0B1FFF78CF8064614E0286840F414
:1035E00080302860F4E7286840F48020286028684C
:1035F00040F480302860EBE7FFF77AF8801B6428FE
:1036000001D90320C8E728688003F5D50DE0FFF74E
:103610006FF8064606E0FFF76BF8801B642801D9B7
:103620000320B9E728688003F5D42078BA4F8007D3
:103630004FF0000948D5B748001D016811F00C0F84
:1036400008D00068C0F38100022813D1D8F8000028
:1036500040020FD42868800704D5E068012801D013
:10366000012099E72868216920F0F80040EAC100AC
:10367000286029E0E068B8B101203860FFF738F829
:10368000064606E0FFF734F8801B022801D9032024
:1036900082E728688007F5D52868216920F0F800BE
:1036A00040EAC10028600FE0C7F80090FFF720F85B
:1036B000064606E0FFF71CF8801B022801D903200C
:1036C0006AE728688007F5D42078000729D5DFF855
:1036D00044A2924861690AF1700A89B1012101602E
:1036E000FFF706F8064606E0FFF702F8801B0228FF
:1036F00001D9032050E7DAF800008007F4D510E084
:10370000C0F80090FEF7F4FF064606E0FEF7F0FF73
:10371000801B022801D903203EE7DAF80000800769
:10372000F4D42078400778D54FF0000A79483C302F
:103730000068C0000BD477483C30016841F08051EC
:103740000160006800F0805000904FF0010ADFF83F
:10375000D0B1DBF80000C00514D4DBF8000040F461
:103760008070CBF80000FEF7C3FF064606E0FEF7C8
:10377000BFFF801B022801D903200DE7DBF8000002
:10378000C005F4D5634EA0686C3601280FD005281B
:1037900012D0306820F001003060306820F0040062
:1037A0003060A068F8B1FEF7A3FF834617E03068E9
:1037B00040F001003060F4E7306840F00400306011
:1037C000306840F001003060EBE7FEF791FFA0EBBE
:1037D0000B0141F28830814201D90320DCE63068D8
:1037E0008007F2D510E0FEF783FF834609E0FEF77D
:1037F0007FFFA0EB0B0141F28830814201D9032009
:10380000CAE630688007F2D4BAF1010F05D1414809
:103810003C30016821F080510160A069C0B33D498E
:10382000091D09684FF0FF36C1F38101022946D016
:10383000022805D0C7F86090FEF75AFF04463AE028
:10384000C7F86090FEF754FF814607E0FEF750FF8F
:10385000A0EB0900022801D903209DE62868800119
:10386000F4D4D4E907010843616AA26A890106EB2E
:10387000520241EA0241084394F82C1040EA0160E8
:10388000C8F8000001203866FEF732FF044607E062
:103890003DE0FEF72DFF001B022801D903207BE647
:1038A00028688001F5D532E0FEF722FF001B0228D0
:1038B00001D9032070E628688001F5D427E00128AB
:1038C00023D0D8F80000E26900F4800191421AD1B7
:1038D000226A00F03F01914215D147F6C071626A39
:1038E0000140B1EB821F0ED1A26A00F4403106EB19
:1038F0005202B1EB024F06D194F82C1000F0706028
:10390000B0EB016F03D0012046E6012044E6002021
:1039100042E600000438024000004742800E474261
:103920000070004010B50446002C02D0607F10B13A
:1039300006E0012010BD00202077204600F042F86C
:10394000022060772068C168C943C90631D5CA2101
:103950004162216853204862204601F056FCC8B9F4
:1039600020688168164A1140816020688168626819
:103970001143D4E904231A43114381602168E068AC
:10398000086120680169228941EA024101612046FB
:1039900001F05EFC48B921680A6C22F480220A64B6
:1039A00021680A6CA3691A430A642268FF215162E4
:1039B00000E000200028BDD10121617710BD00008A
:1039C000BFFF8FFF1FB5002100910191029103916C
:1039D0000068084988420CD1022000900002039040
:1039E0006846FFF719FC08B1FDF73BFE02490120CC
:1039F00008601FBD002800403C0E474270B50446D9
:103A00000B46207F012805D001262677022060770B
:103A100012B108E0022070BD5878C10603D500F04D
:103A2000EF000A305870A2B19878D97840EA014581
:103A300058781978000240EA413005432168CA20CD
:103A40004862216853204862204601F0DEFB88B1BD
:103A500017E0D87801F0CEFB0204587801F0CAFBD9
:103A600042EA0022987801F0C5FB0243187842EA46
:103A70004035E3E70748054020684560204601F0EF
:103A8000E7FB00B966772268FF21516200212177A8
:103A900070BD00003FFFFF002DE9F04104460D46D8
:103AA000207F012821D04FF0010884F81C800220DB
:103AB00060770027E2B120688068400600D4EF708C
:103AC000A878297840EA01466878E978000240EA57
:103AD000815006432168CA20486221685320486209
:103AE000204601F092FBC8B12BE00220BDE8F08136
:103AF00020688068400600D4EF70287801F07AFBD7
:103B00000204687801F076FB42EA0022A87801F00E
:103B100071FB0243E87842EA8056DBE70D48064035
:103B2000206806602068816821F480218160D5E9E1
:103B3000031001432068826811438160204601F030
:103B400087FB08B984F81D802268FF21516227771E
:103B5000CCE700007F7F7F0070B505460A482968E2
:103B6000C860FEF7C5FD04464FF47A7606E0FEF71E
:103B7000BFFD001BB04201D9032070BD2868C0689A
:103B80008006F4D5002070BD5F7F010010B5401E97
:103B9000B0F1807F01D3012010BD4FF0E0246061BF
:103BA0000F21601704F06BFA0020A061072020614C
:103BB000002010BD38B5044694F84200202801D0FA
:103BC000022038BD71B16AB101202063002060631A
:103BD000204602F0A1F90346206B012804D00123FE
:103BE000184638BD012038BD206801684068009043
:103BF00020680C3050E8001F41F0100140E800122E
:103C0000002AF5D1ECE7000000680449884204D19D
:103C100003490120087003490870704700480040BC
:103C20000402002068020020704770B50446002C92
:103C300004D094F84100002510B106E0012070BDC9
:103C400084F84050204600F023F8242084F84100F6
:103C50002068C16821F40051C160204602F0D2F80A
:103C60002068016921F4904101612068416921F0D7
:103C70002A0141612068C16841F40051C160656456
:103C8000202084F8410084F842006563002070BD64
:103C90002DE9F04F87B00446142102A8FCF752FC2E
:103CA000574A0225216857480026AF064FF0030AFD
:103CB0004FF0070B4FF480684FF48079914263D145
:103CC000504914310A6842F010020A60096801F094
:103CD00010010191016841F002010160016801F0E9
:103CE00002010191016841F001010160006800F0EA
:103CF000010001908020029003950496CDF814A055
:103D0000CDF818B002A94048FEF70AFC280202903C
:103D100003950496CDF814A0CDF818B002A93B483D
:103D2000FEF7FEFB3B4D3A4828606F60AE60EE60E8
:103D3000C5F810806E61AE61C5F81C902E626E628F
:103D40002846FEF739FB08B1FDF78BFCE563AC6351
:103D50002F48304D7830603528606F604020A86073
:103D6000EE60C5F810806E61AE61C5F81C902E62E1
:103D70006E622846FEF720FB08B1FDF772FCA563D2
:103D8000AC6307B0BDE8F08F234A9142F9D11D49D9
:103D900010310A6842F480220A60096801F4802127
:103DA0000191016841F004010160006800F0040025
:103DB00001904FF44060029003950496CDF814A052
:103DC000CDF818B002A91548FEF7AAFB114D14480A
:103DD000C03528606F60AE60EE60C5F810806E611F
:103DE000AE61C5F81C904FF4403028626E622846E0
:103DF000FEF7E2FA08B1FDF734FCE563AC63C0E717
:103E0000001001403038024000040240000002402F
:103E100040640240200700200048004000080240A3
:103E20002860024070477047FEE7000080ED080AF6
:103E3000C0ED090A80ED0A1A416482649FED0A0A06
:103E400080ED0C0A80ED0E0A80ED0D0A80ED020A6D
:103E500080ED030A80ED040A80ED100A80ED010A6E
:103E600080ED000A7047000000000000F0B500235C
:103E70000A2530263727002412E0B5EB107F04D93D
:103E800006EB107C01F813C003E007EB107C01F88F
:103E900013C0000101EB430C8CF801405B1CDBB24A
:103EA0009342EAD3F0BD000010B58AB00120029021
:103EB000002004900590082106918DF81C00FF2039
:103EC0008DF820008DF821008DF822008DF8230058
:103ED0008DF824008DF825008DF82600FC208DF843
:103EE000270008A8009005480123002244680548DF
:103EF00003490068A0470AB010BD0000B0010020CF
:103F0000480600200800002090ED010AFCEEC00ADF
:103F100010EE901A018380ED0D0A00210186704792
:103F200010B58AB00120029000200490059008216D
:103F300006918DF81C00FF208DF820008DF82100DF
:103F40008DF822008DF823008DF824008DF82500CF
:103F50008DF82600FE208DF8270008A8009005485F
:103F6000012300224468054803490068A0470AB0BD
:103F700010BD0000B001002048060020080000200D
:103F80000FB430B52DED028B81B09DF83410069C36
:103F9000641EF2EE090A9FED598AF1EE0C8A584D23
:103FA00055F8240090ED010ABCEEC00A10EE102A6C
:103FB0000283080955F8241008809DF836009DF802
:103FC000351040EA012055F8241088829DF837000A
:103FD0009DF83810000140EA111055F82410C882ED
:103FE00055F824109DF83900C88155F82400102197
:103FF000BAEE090A808A04F031FC55F8240080EDFD
:10400000010AF6EE000A55F8240020EE200ADFED42
:104010003D0A20EE200ADFED3C0A20EE200A80ED6A
:10402000010A55F824000C21F0EE480AC08A9FEDE1
:10403000370A04F013FC55F8240080ED020A55F805
:1040400024000C21F0EE680AC089B9EE0C0A04F0D5
:1040500005FC55F8240080ED040A55F824109DF85D
:104060003A00087355F824109DF83B00487355F842
:104070002400818A0091018BD0ED010A00EE101A14
:10408000234AB8EE400A30EEC00A10EE101A9142F0
:1040900002D9018E491C018655F82400018BD0ED10
:1040A000010A00EE101AB8EE400A30EE600A10EE77
:1040B000101A914202D9018E491E018655F824003A
:1040C000B0F93010D0ED010A490300EE101AB8EE35
:1040D000C00A30EE800A80ED0D0A55F82400818F69
:1040E000491C818755F82410012081F83A0001B05D
:1040F000BDEC028B30BC5DF814FB000000004843AF
:10410000D4010020DB0F494000001042000048C3EA
:104110000020CBC508B505F06BF90090094E0A4D9B
:104120000A4CA88F2188884204D170688047608833
:10413000401C6080A88F20800121684604F0BEFCEE
:10414000EFE70000D80100201C63002038030020A6
:104150002DE9F04104462DED068B82B0F0EE60AA09
:10416000B0EE419AF0EE619AB0EE42AADFED2C0A71
:1041700020EE200AF0EE000A20EE200ADFED290AE8
:1041800020EE200A9FED281A9FED288AF1EE0C8A76
:104190001020DFED270A03F0A1FF05460C20B0EE4A
:1041A000481ADFED240AB0EE6A0A03F097FF0646CC
:1041B0000C20B0EE681AF9EE0C0AB0EE4A0A03F0D1
:1041C0008DFF07469FED1D8A0C209FED1B1AF0EE18
:1041D000480AB0EE490A03F081FF80460C20B1EE98
:1041E000041AF0EE480AB0EE690A03F077FF019571
:1041F000290A217065703109A170310141EA182145
:10420000E17084F8048001096171000140EA17201F
:10421000A071E77102B0BDEC068BBDE8F081000033
:1042200000000039DB0F4940DC0F494000004843E3
:10423000DC0F49C0000048C30000FA430000000042
:10424000016270472DE9F04106460F4614460025ED
:10425000DFF8488013E006EB850090ED000A0F4878
:1042600003F051FF002318F8030060602268500635
:10427000FCD55B1CDBB2042BF5D36D1CADB2BD428B
:10428000E9D30020064A115C616021684906FCD52B
:10429000401CC0B20428F6D3BDE8F08150020020D3
:1042A00050A1000870B51C48017C427C0904408A7A
:1042B00041EA424505430021174C0126883C06FA95
:1042C00001F0284210D06218137D5B1CDBB213751D
:1042D000032B02D9A3680343A360127D3C2A17D99C
:1042E00022690243226113E06218137D1B1F382BE1
:1042F00003D2E3680343E36002E0E3688343E360DF
:10430000A3688343A360236983432361002010755E
:10431000491C1229D3DB70BD4464002030EE601AC2
:10432000D0ED030AD0ED041A30EEE12AF0EE081ABF
:10433000F0EE000A20EE210A20EE200AC0EE020A6A
:10434000C1ED000A90ED030A90ED042A21EE211A36
:1043500030EE422A81EE020A81ED010A10EE900A47
:104360000D4AF1EE040A904201DBC1ED000A0B4B4D
:104370000868B9EE041A984201D381ED001A10EED4
:10438000100A904201DBC1ED010A4868984201D34E
:1043900081ED011A704700000000A0400000A0C09D
:1043A0000FB410B50298A0F207201D4901EB401090
:1043B000018881819DF825109DF8242041EA022181
:1043C00001809DF827109DF8262041EA02214180B6
:1043D0009DF829109DF8282041EA02218180028859
:1043E0008189104B541A9C4203DA818A491C8182CC
:1043F00005E0891A994202DA818A491E8182018880
:10440000B0F9142001EB4231016101888181818B77
:10441000491C81830121817610BC5DF814FB0000EA
:104420005C63002090E8FFFF30B5039C050A25700F
:104430006070080AA070E170100A20716271180A99
:10444000A071E37130BD00000FB410B50298A0F266
:1044500005209DF825109DF8242041EA02221A49E2
:1044600001EB401002809DF827109DF8262041EABC
:10447000022141809DF829109DF8282041EA02215F
:1044800081809DF82A108171028881890F4B541A0E
:104490009C4203DA818A491C818205E0891A99428B
:1044A00002DA818A491E81820188B0F9142001EB69
:1044B0004231016101888181418B491C4183012185
:1044C000017610BC5DF814FB7C63002090E8FFFFD0
:1044D00030B5039C050A25706070080AA070E17071
:1044E000100A20716271180AA071E37130BD018851
:1044F000818100EE101AB8EE400A80ED070A002113
:10450000018370470FB430B50398A0F502702A4AB2
:1045100052F820100B888B819DF829109DF82830C7
:1045200041EA032152F8203019809DF82B109DF8A4
:104530002A3041EA032152F8203009B259609DF82F
:104540002D109DF82C3041EA032152F820301981BA
:1045500052F820309DF82E10997252F820100B88D6
:104560008C891C1B154B9C4202DA0C8B641C0C833F
:1045700052F820108C890D88641B9C4202DA0B8B48
:104580005B1E0B8352F820100B88B1F9184003EB27
:10459000443300EE103AB8EEC00A81ED070A52F833
:1045A00020108B8C5B1C8B8452F82000012180F83A
:1045B000221030BC5DF814FB540200209CE6FFFF83
:1045C0004161704730B5039C050A25706070080A88
:1045D000A070E170100A20716271180AA071E37175
:1045E00030BD000010B510480E4901600321416044
:1045F00000218160C1604FF4102202614FF400126B
:104600004261017641768176C17601770121417759
:10461000FDF718FC002803D0BDE81040FDF721B8D5
:1046200010BD0000006400402006002010B51048B6
:104630000E4901600321416000218160C1604FF497
:10464000102202614FF4001242610176012242768B
:104650008176C27601774277FDF7F4FB002803D01C
:10466000BDE81040FCF7FDBF10BD00000068004031
:104670004806002008B51548016841F400110160A2
:10468000016801F400110091016841F480010160AA
:10469000006800F480000090002205210C20FEF745
:1046A0009BF80C20FEF78AF8002205213A20FEF73D
:1046B00093F83A20FEF782F8002205214620FEF703
:1046C0008BF8BDE808404620FEF778B83038024045
:1046D00010B5CEB000222421102004F0C5FB464CBA
:1046E000206000222421102004F0BEFB6060002224
:1046F0002421102004F0B8FBA06000221E2110200D
:1047000004F0B2FBE0601C223C4947A8FBF7E8FE3E
:10471000002147A803F08FFD60631C2237491C313C
:1047200040A8FBF7DDFE002140A803F084FDA06354
:104730001C223249383139A8FBF7D2FE002139A8B2
:1047400003F079FD20611C222C49543132A8FBF77B
:10475000C7FE002132A803F06EFD60611C222749CC
:1047600070312BA8FBF7BCFE00212BA803F063FDE2
:10477000A0611C2221498C3124A8FBF7B1FE002145
:1047800024A803F058FDE0611C221C49A8311DA893
:10479000FBF7A6FE00211DA803F04DFD60621C2260
:1047A0001649C43116A8FBF79BFE002116A803F09A
:1047B00042FD20621C221149E0310FA8FBF790FE58
:1047C00000210FA803F037FDA0621C220B49FC3129
:1047D00008A8FBF785FE002108A803F02CFDE06285
:1047E0001C22074901A8FBF77BFE002101A803F06A
:1047F00022FD20634EB010BD00000020B09A0008DA
:10480000C89B000808B51548016841F00201016025
:10481000016801F002010091016841F001010160AD
:10482000016801F001010091016841F00801016097
:10483000016801F008010091016841F00401016084
:10484000016801F004010091016841F080010160FC
:10485000006800F08000009008BD00003038024081
:1048600010B586B0142101A8FBF76CFE002400945B
:104870001A481949016044607F218160FF21C160AD
:10488000046144618461FFF74DF808B1FCF7E9FE6B
:104890008DF804408DF805408DF806400494059489
:1048A000012201A90D48FFF7F7F808B1FCF7D9FE7E
:1048B00001208DF800008DF801008DF802008DF8C0
:1048C0000340012269460548FFF798F8002801D007
:1048D000FCF7C7FE06B010BD00280040700600209F
:1048E00010B50C480A4901604FF4E13141600021E4
:1048F0008160C16001610C2242618161C161FFF789
:1049000094F9002803D0BDE81040FCF7AABE10BD02
:10491000001001409006002010B50E480C490160BF
:104920000D4941604FF4805181604900C160C91058
:1049300001610C21416100218161C161FFF775F9BD
:10494000002803D0BDE81040FCF78BBE10BD00006E
:1049500000480040D8060020A086010010B50022C3
:104960000F49104802F075F808B1FCF77AFE0E49BD
:104970000C4802F0C6FA08B1FCF773FE0B4909486F
:1049800001F028FD08B1FCF76CFE064802F08EFB32
:10499000002803D0BDE81040FCF763BE10BD000046
:1049A00040000020400800209403002090000020D8
:1049B000FEE7000070B510EE102A6FF040434FF490
:1049C00080051A440123B0EE082AAA420DD2002223
:1049D0000A704B70F8EE000A70EEC00AC0ED000AD3
:1049E00030EE020A80ED010A70BD10EE102A324C42
:1049F0004FF4000614440222F1EE400AB7EE001A0A
:104A0000F0EE001AB4420AD20B704A7070EEC10A7E
:104A1000C0ED000A30EE210A80ED010A70BD10EEF3
:104A2000103A032413F1814F0DD8B5EEC00AF1EE10
:104A300010FA08D20A704C70C0ED000A30EE010A7C
:104A400080ED010A70BDB5EEC00A0423F1EE10FA44
:104A50000DDB10EE102AB2F17E5F08DA0C704B709D
:104A600071EE400AC0ED000A80ED010A70BD10EE43
:104A7000102A0524A2F17E52B2420AD20B704C7069
:104A800071EEC00AC0ED000A30EE410A80ED010A65
:104A900070BD10EE102AA2F18042AA42F8D80C7024
:104AA00006224A7072EE400AC0ED000A30EE610A3A
:104AB00080ED010A70BD0000FFFF7F40FEE70000AF
:104AC00070B5FDF715FE2C4D28612C4C686908B9AE
:104AD00020696861E86910B9FDF70AFEE861E969D3
:104AE0002869411AE86195ED000AB5EEC00AF1EEB9
:104AF00010FA02DB286A08442862E86840BB1E4EB0
:104B0000243E307820BB1E48017C11B990F8290062
:104B100010B91C488079D8B11B48E080B4F9020074
:104B20001B4900EE100A1B48F8EEC00A9FED170A59
:104B300000F096F9BDEEC00A10EE100AE08220697E
:104B400030616969091AAA691144A961686170BD77
:104B50000020E080B4F902000D4900EE100A0D4873
:104B6000F8EEC00A9FED0C0A00F07AF9BDEEC00A1B
:104B700010EE100AE08270BDDC0200205C630020B1
:104B8000F06200209802002078ECFFFF00409CC5F6
:104B900090610020B0670020000000000148FDF790
:104BA00090BF00003C1F00209FED0A1A80ED001A04
:104BB000F7EE001AC0ED031A80ED090AC0ED0A0AEB
:104BC000C0ED071A80ED081AC0ED0B1A80ED011A2E
:104BD000704700000000000070B504462068056CB6
:104BE00000EB4110D0F8081B0C4EB54205D9090462
:104BF00003D54FF40041C0F8081B2046FEF7CCFA5D
:104C0000B54208D9A079012805D104F29C420121BE
:104C1000206802F0E5FD002070BD00000A30544F0E
:104C20002DE9F04105460C462E68306C06EB441128
:104C3000D1F8083B95F806804FF400474FF0200C60
:104C400005F29C42B8F1010F08D0DFF8B080404572
:104C500045D118043AD5C1F8087B4CE0284E5FEAEC
:104C6000037806D5B04246D9180444D5C1F8087B6C
:104C700041E05FEA836802D5C1F808CB3BE013F05E
:104C8000280F38D1B04204D9180402D5C1F8087BE6
:104C900031E004EBC40005EB800000F51570D1F89D
:104CA000101B036AC1F31201591A416124B9036947
:104CB0003BB1C2681144C160E1B22846FDF7F1FD85
:104CC00019E00121286802F08BFDF5E7980601D56F
:104CD000C1F808CBE1B22846FDF7E3FD0BE034B99B
:104CE000D5F8640218B90021304602F079FDE1B22E
:104CF0002846FDF7D6FD0020BDE8F0810A31544F6B
:104D00000A30544F2DE9F84F80460E46D8F800700F
:104D100006EBC60008EB80041434D4E90410884282
:104D200002D90120BDE8F88F081AA168814200D29B
:104D30000846C01C4FEA900A07EB461916E0151A00
:104D4000A268AA4200D21546E81C4FEA900A98F8D9
:104D500006000090ABB2F2B23846E16803F0A6F864
:104D6000E0682844E060606928446061D9F8180967
:104D700080B2504505D3D4E90420904201D2002AE4
:104D8000DDD1D4E90401884208D806F00F010120E2
:104D90008840D7F834188143C7F834180020C1E799
:104DA00010B59FED103ADFED102A9FED102AF6EEB8
:104DB000001A9FED0F1ADFED0F0A9FED0F0A0F4843
:104DC00000F070F9BDE810404FF47A7242F21071B1
:104DD0009FED0B1AF6EE000AB2EE090A0948FFF73A
:104DE00025B8000000002F440000FA4500409C4612
:104DF000CDCCCC3E6F12833A9A99993E5C670020E5
:104E000000000000B06700204FF42F724FF4FA51F9
:104E10009FED041ADFED040A9FED040A0448FFF732
:104E200005B8000000000000295C0F3D33335340FB
:104E3000BC6600204FF42F724FF4FA519FED041A14
:104E4000DFED040A9FED040A0448FEF7EFBF0000FF
:104E500000000000295C0F3D333353400C670020F5
:104E600070B504462DED048B0D4684ED000AC4EDAB
:104E7000010A30EE601A84ED021AD4ED050A30EE14
:104E8000600A84ED060AD4ED030A94ED070A30EEB9
:104E9000010A84ED070AB0EE410A2846FCF74CFCF3
:104EA00094ED080AD5ED000A95ED051A00EE810A89
:104EB000D4ED098AD5ED010A95ED061A40EE818AF6
:104EC00094ED0A8AD5ED020A95ED071A00EE818A63
:104ED00094ED0B9AD4ED020A20EE800A84ED0C0AC0
:104EE00094ED120A04F11C00B8EE400A03F0E1F858
:104EF00094ED070A20EE280A84ED0D0AD4ED020A8B
:104F000094ED031A70EEC10A60EE880AC4ED0E0A31
:104F100094ED061A21EE091A84ED0F1AD4ED0C1A3D
:104F200031EE800A30EE200A30EE010A84ED100ADC
:104F300094ED110A04F14000B8EE400A03F0B9F80C
:104F400094ED020A84ED030A94ED000A84ED050A4B
:104F500094ED100ABDEC048B70BD000070B51F4DC0
:104F60001F4A688840421080E88840425080A97BF0
:104F7000002001291CD0908001241474194991ED5E
:104F8000000A194981ED040A697A032913D082F8CD
:104F90002900517C154E164B03290FD0022901D050
:104FA000012904D15873588170715077907670BD83
:104FB000298A9180E0E782F82940EAE77471547702
:104FC000E97A032905D0022905D00129EFD15873C8
:104FD00070BD5C7370BD587370BD0000D26400205A
:104FE000F0620020A8010020F464002020030020CB
:104FF000CC02002010B5044684ED000AC4ED010A7D
:1050000070EE600AC4ED020A94ED031A30EEC11A84
:1050100084ED041AD4ED051A30EE610A84ED060A17
:10502000D4ED081A61EEA01AC4ED0C1AD4ED0D1AD5
:1050300094ED092A42EE201AC4ED0D1AD4ED0A0AA5
:1050400061EE200AC4ED0E0AD4ED0B0A20EE800AB0
:1050500084ED0F0A94ED130A04F1340003F029F8EB
:1050600094ED0C0AD4ED0D0A30EE200AD4ED0E0AB0
:1050700030EE200AD4ED0F0A30EE200A84ED100A3B
:1050800094ED110A04F1400003F013F894ED020AC4
:1050900084ED030A94ED000A84ED050A94ED100AEC
:1050A00010BD000080ED080AC0ED090A80ED0A1A63
:1050B000C0ED0B1A80ED112AC0ED122A80ED133AD3
:1050C0009FED0A0A80ED0C0A80ED0E0A80ED0D0AB4
:1050D00080ED020A80ED030A80ED040A80ED100ADB
:1050E00080ED010A80ED000A70470000000000001A
:1050F00070B504462DED028B0D46B0EE408AF0EE01
:10510000608AD4ED030A94ED020A2846FCF714FBEA
:1051100084ED008AC4ED018A78EE680AC4ED020AC3
:1051200094ED030A30EEC00A84ED040A94ED051AEA
:1051300038EE411A84ED061AD4ED081A95ED002ACE
:1051400071EE821A61EEA01AC4ED0C1AD4ED091AA0
:1051500095ED012A31EE822AD4ED0D1A42EE201A85
:10516000C4ED0D1AD4ED0A1A95ED022A71EE821AD9
:1051700021EE800A84ED0E0A94ED0B0A20EE010A5E
:1051800084ED0F0A94ED120AF4EEC00AF1EE10FA63
:1051900004DB9FED170A84ED0D0A05E094ED130A78
:1051A00004F1340002F085FF94ED0C0AD4ED0D0AF1
:1051B00030EE200AD4ED0E0A30EE200AD4ED0F0AAC
:1051C00030EE200A84ED100A94ED110A04F140003B
:1051D00002F06FFF94ED020A84ED030A94ED000AD9
:1051E00084ED050A94ED100ABDEC028B70BD000041
:1051F00000000000002102E0491C0A38C0B20A2861
:10520000FAD2090740EA116070472DE9F0410446DF
:1052100000252068C168490617D4C16841F08001A3
:10522000C160FDF765FA06464FF47A78042706E078
:10523000FDF75EFA801B404501D96777012520689C
:10524000C068400601D4012DF2D12846BDE8F081A6
:1052500070B5044600252068C16821F08001C16056
:1052600020688068800606D42046FEF775FC10B1E1
:10527000042060770125284670BD00002DE9F05F0D
:105280002DED028B0025CD4FCD4CF88C012801D09F
:1052900070B118E001210820FCF7F8FA08B9B88CC1
:1052A00088B9BD802562E5612561E5603D770AE04A
:1052B00001210820FCF7EAFA28B1BD802562E561EA
:1052C0002561E5603D7701210020FCF7DFFA9FEDC5
:1052D000BD8ADFF8EC8208F1280830B194ED010AAC
:1052E000B8EEC00A88ED010A13E001210846FCF778
:1052F000CDFA40B16068404200EE100AB8EEC00A34
:1053000088ED010A05E0AE482830FBF755FF88ED2F
:10531000018AAB48283000F097FA404238800121DA
:105320000220FCF7B3FADFF8989209F1340940B192
:10533000A068404200EE100AB8EEC00A89ED010AEA
:1053400011E001210320FCF7A1FA30B194ED020A2B
:10535000B8EEC00A89ED010A05E099483430FBF740
:105360002BFF89ED018A9648343000F06DFA4042F7
:10537000788001210620FCF789FA012608B1E0684F
:1053800028B101210620FCF781FA10B109E0E6609E
:1053900007E0E068012804D1E069282801DBE56125
:1053A000E560DFF81CA2B7F904000AF1400ABAF977
:1053B0000A10884209DAE168012906D1E169282941
:1053C00003DA0A30B880491CE16101210720FCF7AB
:1053D0005DFA08B1206928B101210720FCF756FACF
:1053E00010B109E0266107E02069012804D1206A94
:1053F000282801DB25622561B7F90400BAF90810F5
:10540000884209DD2169012906D1216A282903DAA8
:105410000A38B880491C216200211120FCF736FAB5
:1054200069496A4A58B1387C10B1012806D006E0B3
:105430003E7491ED000A82ED040A00E03D74387C70
:10544000012803D191ED000A82ED040A0121102008
:10545000FCF71CFA20B902211020FCF717FA10B152
:10546000787F01287ED00320787401210D20FCF77D
:105470000DFA90B14FF41670A8F80A004142A8F84E
:105480000810A9F80A00A9F808104FF44870AAF803
:105490000A004FF6E040AAF8080001210E20FCF7B0
:1054A000F5F94FF4966B80B14FF46170A8F80A00DB
:1054B0004142A8F80810A9F80A00A9F80810AAF8AB
:1054C0000AB0CBF10000AAF8080001210F20FCF778
:1054D000DDF980B1A8F80AB03D48A8F80800A9F89D
:1054E0000AB0A9F808004FF4C860AAF80A004FF6FD
:1054F000C010AAF8080000210B20FCF7C7F9DFF85C
:10550000D48060B1B8F90A0040F22621C84206DA18
:1055100000F50770A8F80A00F87E801EF8760021D2
:105520000C20FCF7B3F960B1B8F90A0040F6B831C5
:10553000C84206DDA0F50770A8F80A00F87E801CB6
:10554000F8762549488900EB800038818889C000B9
:10555000F88001210520FCF799F978B1A06918B10C
:105560000DE0FFE77E7480E7387F10B1012802D09C
:1055700002E03E7700E03D77A66100E0A5610121F1
:105580000920FCF783F958B1606950B9787F10B1F0
:10559000012802D002E07E7700E07D77666100E0BE
:1055A000656101210A20FCF771F920B1FE77BDEC9D
:1055B000028BBDE8F09FFD77F9E70000F062002064
:1055C0000402002000000000A8010020F464002074
:1055D00050FBFFFFCC0200204464002030B5124B8A
:1055E000124C18461A7F0025B0F90400A16A012A5E
:1055F00003D0401A9880A56230BD626A52B1012A78
:10560000FAD1C91EA162C01E988011F5967FF3DC05
:10561000656230BDC91CA162C01C9880B1F5967F3F
:10562000F7DB0120606230BDF06200206C020020D8
:1056300070B52748274B418849421980C1884942A3
:105640005980417B83F82810002119748288DA8000
:1056500002881A81827B012A1BD09980407A012519
:10566000032819D083F8291019485C7C1A4E1B4A6C
:10567000C07A032C13D0022C1FD0012C08D17571D5
:105680005D7703281FD002281FD0012800D1517355
:1056900070BD028A9A80E1E783F82950E4E77571CA
:1056A0005D77032805D0022805D00128F0D1517379
:1056B00070BD557370BD517370BD5173518171715F
:1056C0005977997670BD557370BD517370BD0000E8
:1056D000D2640020F062002020030020CC020020D1
:1056E00086B003F085FE0590DFF89890DFF898B05B
:1056F000DFF898A0264F274D274E0DF10C08D9F85A
:1057000010008047D9F8040080472448006880478B
:10571000CDF800802248234CBBF91620B0F9203088
:105720006468BAF93610BAF91600A04797F939003B
:1057300097ED0B2A00EE100A97F93800D7ED0A0A08
:10574000F8EEC01A00EE100A1748B8EEC01A016849
:1057500097ED090A01A88847CDF800806C6840F2EF
:10576000FF13002211493068A04701A800900123CF
:105770006C6800220E493068A047022105A803F09A
:105780009DF9BCE7A00200205C6300207C63002040
:105790001C630020B0010020080000202803002026
:1057A0006C640020FC010020D801002020060020AD
:1057B000480600200178407841EA00207047000048
:1057C00010B505480068804700F00AF803484068B3
:1057D000BDE8104000470000100300200003002037
:1057E00030B5154D12A113A4687C0023134AA142C1
:1057F00015D1134C217B012901D111699160114907
:105800000979012901D019B103E00121617300E098
:105810006373032803D1E97F012904D0D3800228D0
:1058200000D1D38030BD4FF4FA61D180F7E700009A
:105830005444460044543700F06200205C6300206A
:10584000CC0200202C03002090ED000AD0ED010ACC
:1058500030EE200A80ED000AB0F9081000EE901A30
:10586000F8EEE00AB4EEE00AF1EE10FA05D200EE2E
:10587000101AB8EEC00A80ED000AB0F90A10D0ED97
:10588000000A00EE101AB8EEC00AF4EEC00AF1EEFB
:1058900010FA05DD00EE101AB8EEC00A80ED000A1D
:1058A00090ED000ABDEEC00A10EE100A00B270477B
:1058B000FFF754F8012002F0B1FCFBE710B50C4CE7
:1058C0000D49B4F9020000EE100A0C48F8EEC00AC7
:1058D0009FED080AFFF7C4FABDEEC00A10EE100AE9
:1058E000E08207480021C1602169416110BD0000CC
:1058F0005C6300200000000090610020B067002081
:10590000DC02002010B5FCF7F9FE03F063FD01286E
:1059100003D0BDE8104003F091BA10BD30B593B08C
:10592000302107A8FAF70EFE142102A8FAF70AFEA2
:1059300000251F48016841F080510160006800F0B7
:10594000805001901B48016841F48041016000686B
:1059500000F480400190092007904FF480300890B7
:1059600001200C9002240D9480050E9006200F90CB
:10597000A820109011940720129007A8FDF7F2FDBF
:1059800008B1FBF76EFE0F200290039404954FF4CC
:10599000A05005904FF480500690052102A8FDF715
:1059A000DFFC002801D0FBF75CFE13B030BD000027
:1059B00040380240007000400248016841F4700124
:1059C0000160704788ED00E070B58B4801780129CF
:1059D0007ED100260670894801780F29F8D1017E12
:1059E0000029F5D18178427801F0070300F11A040B
:1059F00042EA03226280CA08C17801F03F0342EA0A
:105A00004312A2800279890941EA8202417901F0B8
:105A1000010342EA8322E2804A08817901F00F0300
:105A200042EAC31222810A09C17901F07F0342EAE6
:105A300003126281027AC90941EA4202417A01F005
:105A4000030342EA4322A2818A08817A01F01F03FC
:105A500042EA8312E281C27A490941EAC201218203
:105A6000417B027B01F0070342EA03226282CA08FB
:105A7000817B01F03F0342EA4312A282C27B890983
:105A800041EA8202017C01F0010342EA8322E282C0
:105A90004A08417C01F00F0342EAC31222830A093B
:105AA000817C01F07F0342EA03126283C27CC90950
:105AB00041EA4202017D01F0030342EA4322A2834C
:105AC0008A08417D01F01F0342EA8312E28300E06D
:105AD0007EE0807D490941EAC0002084B4F90200DB
