:020000040800F2
:10000000306E0020290300088D4A0008F93D0008E1
:10001000814900082D0B0008218000080000000025
:10002000000000000000000000000000690200085D
:100030006515000800000000C5020008015800080E
:100040004303000843030008430300084303000878
:100050004303000843030008430300084303000868
:100060004303000843030008430300084303000858
:10007000D5110008430300084303000843030008A8
:100080004303000843030008430300083D0B000836
:10009000310B000843030008430300084303000832
:1000A0004303000843030008430300084303000818
:1000B0004303000843030008430300084303000808
:1000C00043030008430300084303000843030008F8
:1000D00043030008430300084303000843030008E8
:1000E00043030008430300084303000843030008D8
:1000F00043030008430300084303000843030008C8
:1001000043030008430300084303000843030008B7
:1001100043030008430300084303000843030008A7
:100120004303000843030008E111000843030008EB
:10013000430300084303000843030008550B00086D
:10014000490B00084303000843030008694B0008FB
:100150004303000843030008ED11000843030008AF
:100160004303000843030008430300084303000857
:100170004303000843030008430300080000000095
:10018000430300084303000800F002F800F05CF8A5
:100190000AA090E8000C82448344AAF10107DA45E2
:1001A00001D100F051F8AFF2090EBAE80F0013F0D8
:1001B000010F18BFFB1A43F00103184788A0000085
:1001C000A8A000000A444FF0000C10F8013B13F007
:1001D000070408BF10F8014B1D1108BF10F8015BA0
:1001E000641E05D010F8016B641E01F8016BF9D193
:1001F00013F0080F1EBF10F8014BAD1C0C1B09D1EA
:100200006D1E58BF01F801CBFAD505E014F8016B5B
:1002100001F8016B6D1EF9D59142D6D370470000ED
:100220000023002400250026103A28BF78C1FBD8FF
:10023000520728BF30C148BF0B6070471FB509F097
:1002400038FC1FBD10B510BD00F0A6F91146FFF730
:10025000F5FF07F083FF00F0C4F903B4FFF7F2FFE6
:1002600003BC00F0CBF900002C4B19680868B0E81B
:10027000F04F80F30988BFF36F8F4FF0000080F3D9
:10028000118870470000000008480068006880F38B
:1002900008884FF0000080F3148862B661B6BFF39F
:1002A0004F8FBFF36F8F00DF00BF00BF08ED00E08E
:1002B000DFF80C00016841F470010160704700BF75
:1002C00088ED00E0EFF30980BFF36F8F134B1A68DE
:1002D0001EF0100F08BF20ED108A20E9F04F1060CB
:1002E00009B44FF0500080F31188BFF34F8FBFF374
:1002F0006F8F08F0FFFC4FF0000080F3118809BCFD
:1003000019680868B0E8F04F1EF0100F08BFB0EC95
:10031000108A80F30988BFF36F8F7047B400002004
:10032000EFF30580704700000948804709480047FF
:10033000FEE7FEE7FEE7FEE7FEE7FEE7FEE7FEE795
:10034000FEE7FEE704480549054A064B70470000F2
:10035000B55800088901000830680020306E002080
:10036000306A0020306A002053EA020C00F06980F5
:100370002DE9F04B4FF00006002B1FBFB3FA83F5B9
:1003800003FA05F424FA05F65E4012BF1643B2FAEA
:1003900082F502FA05F4C5F120051EBF22FA05FC1C
:1003A00044EA0C04203556EA044C4FEA144418BFC2
:1003B000641C4FF000084FF00009904271EB030CF1
:1003C00039D3002919BFB1FA81F701FA07F6B0FA5B
:1003D00080F700FA07F6C7F120071EBF20FA07FCD6
:1003E00046EA0C062037B6FBF4FCA7EB0507103FE6
:1003F00007F01F0BCBF120060CFA0BFB2CFA06F6CC
:1004000044BFB3460026202FA4BF5E464FF0000B2A
:100410005BEA060C08BF4FF0010B19EB0B09ABFBB5
:10042000027C48EB0608C01B06FB02CC0BFB03CC8E
:1004300071EB0C01C1E70B46024641464846BDE858
:10044000F08B13B54FF000004FF00001AFF30080C8
:10045000BDE81C407047032A40F2308010F0030CC6
:1004600000F0158011F8013BBCF1020F624498BF07
:1004700011F801CB00F8013B38BF11F8013BA2F1A4
:10048000040298BF00F801CB38BF00F8013B11F01F
:10049000030300F02580083AC0F0088051F8043BBF
:1004A000083A51F804CBA0E80810F5E7121D5CBF2C
:1004B00051F8043B40F8043BAFF30080D20724BF5F
:1004C00011F8013B11F801CB48BF11F8012B24BFF3
:1004D00000F8013B00F801CB48BF00F8012B704742
:1004E00010B5203AC0F00B80B1E81850203AA0E8CF
:1004F0001850B1E81850A0E81850BFF4F5AF5FEA03
:10050000027C24BFB1E81850A0E8185044BF18C9B5
:1005100018C0BDE810405FEA827C24BF51F8043B5C
:1005200040F8043B08BF7047D20728BF31F8023BB0
:1005300048BF11F8012B28BF20F8023B48BF00F844
:10054000012B70474FF0000200B5134694469646C3
:10055000203922BFA0E80C50A0E80C50B1F12001D6
:10056000BFF4F7AF090728BFA0E80C5048BF0CC084
:100570005DF804EB890028BF40F8042B08BF7047E2
:1005800048BF20F8022B11F0804F18BF00F8012B54
:100590007047704770477047754600F02BF8AE46BD
:1005A00005006946534620F00700854618B020B57F
:1005B000FFF7C8FEBDE820404FF000064FF00007EF
:1005C0004FF000084FF0000B21F00701AC46ACE8FB
:1005D000C009ACE8C009ACE8C009ACE8C0098D4668
:1005E000704710B50446AFF300802046BDE81040C8
:1005F000FFF733BE00487047CC6700200149182040
:10060000ABBEFEE726000200704700002DED108B08
:10061000764CDFED77BADFED77CA9FED77DA9FEDA5
:1006200077CA41F28835AE009FED758ADFED75DA45
:100630009FED75EADFED75EA9FED75FA4FF47A7775
:1006400042F21078DFED738A9FED739A08F070F92B
:100650002368012171489847236802217048984710
:10066000B2EE042AF0EE6B1AB3EE091AF0EE6C0A41
:10067000B0EE4D0A6B4807F05BFDB2EE042AF0EED7
:100680006B1AB3EE091AF0EE6C0AB0EE4D0A66482A
:1006900007F04EFDB0EE082AF0EE4C1AB1EE041A47
:1006A000FBEE0E0AB3EE0E0A604807F041FDB7EE0E
:1006B000002AF0EE4C1AB0EE6B1AFAEE040AB2EE13
:1006C000040A5B4807F034FD2A463146B3EE0E1AA1
:1006D000F0EE480AB0EE6D0A564803F08FFB2A464A
:1006E0003146B3EE0E1AF0EE480AB0EE6D0A5248EB
:1006F00003F084FBB0EE4E3AF0EE6E2AB0EE4F2AD5
:10070000F6EE001AB6EE001AF0EE4C0AB3EE040A4A
:100710004A4804F08DFC3A464146B0EE081AF6EE1F
:10072000000AB2EE090A464803F068FBB0EE683AE8
:10073000F0EE682AB0EE492AF0EE481ADFED419A51
:10074000F1EE040AB0EE691A9FED3FAA3F48B0EE01
:100750004A0A04F06DFCDFED3EAA9FED3EBAB0EE12
:10076000683AF0EE682AB0EE492AF0EE481AB0EE88
:10077000481AF0EE6A0AB0EE4B0A374804F058FC0B
:10078000B0EE683AF0EE682AB0EE492AF2EE0E1AA0
:10079000B0EE691AF1EE040AB0EE4A0A2F4804F0EE
:1007A00047FCB0EE683AF0EE682AB0EE492AF0EE67
:1007B000481AB0EE481AF0EE6A0AB0EE4B0A284822
:1007C00004F036FC00F012FB26A027A1884201D1DC
:1007D00000F0BEFE05F066FA2448806B08F0C0F910
:1007E00008F0C6F8012007F01FFD2FE77401002074
:1007F000CDCCCC3D0000C8C20000C8420AD7233C83
:10080000000000000000204200002F440000FA45D4
:1008100000409C4600401C460060EA46D40500208B
:10082000FC050020C4600020046100204461002019
:100830008461002068660020B866002008670020F8
:100840005C6700200000484200002A43C065002089
:10085000ACC52737E7FBA93D1466002018650020CA
:100860006C650020544446004454370000000020CA
:100870008AB0084C6D464FF0FF3707AE3A466946DE
:10088000206808F071FC09AB3246291D009801F080
:100890003FF8F3E70800002070B505460C46002D30
:1008A00009D0022C07D9FF22611E284600F0F4FF70
:1008B000291901F8010C70BD2DE9F04186B0002521
:1008C0000495059502950395344C2088010A8DF80E
:1008D00010108DF811006088010A8DF812108DF843
:1008E0001300A088010A8DF814108DF815002089D6
:1008F000010A8DF816108DF81700DFF8A48004A8FF
:10090000294F0090D8F8046040F20F1300222549C7
:100910003868B0478DF80850244800788DF80900F1
:100920008DF80A50617E9DF80B0001F0010108432B
:10093000217B01F0010140EA4100217E01F001012B
:1009400040EA8100A17D01F0010140EAC10094F874
:10095000241001F0030140EA41101549097801F023
:10096000010140EA81108DF80B008DF80C50114800
:1009700001788DF80D108DF80E5080788DF80F00ED
:1009800002A80090D8F8044040F21F130022054945
:100990003868A04706B0BDE8F0810000A4620020DE
:1009A00074010020FC050020080000201C640020C9
:1009B0005D010020700100200FB49DF820009DF81B
:1009C0001C109DF81F2040EA01609DF81D100904CD
:1009D00041EA0221084300EE100A0348B8EEC00ABB
:1009E00080ED000A04B07047640100200FB49DF848
:1009F0001D009DF81C1040EA01201649C8819DF891
:100A00001F009DF81E2040EA022008849DF8210066
:100A10009DF8202040EA022000B200EE100AB8EE55
:100A2000C00ADFED0D0A80EE201A81ED041A9DF850
:100A3000220000F001028A76C0F340024A84074A8D
:100A4000C0F3011111700649C0F34010087004B0E2
:100A500070470000A462002000007A445C0100207E
:100A60005E0100202DE9F0412DED028B4FF47A77E5
:100A7000294C9FED2A8AA4F1240621697068284D2B
:100A8000081AB0F5487F23D32A69B068101A00D538
:100A90004042142818DAE068B0B93078A0B90120D3
:100AA0003070F160EF80B5F902001E4900EE100AC7
:100AB0001D48F8EEC00AB0EE480A04F0E5F9BDEEB4
:100AC000C00A10EE100AE882206970602869B060E0
:100AD0003078002809D02069F168401AB0F5FA7F13
:100AE00007D30020307028696061BDEC028BBDE83F
:100AF000F081EF80B5F902000A4900EE100A0A48B9
:100B0000F8EEC00AB0EE480A04F0BEF9BDEEC00A25
:100B100010EE100AE882E8E79002002000007A4414
:100B20000C630020446100205C670020FEE70000A9
:100B3000014801F071B80000D4050020014801F01F
:100B40006BB80000D4050020014801F065B8000032
:100B5000FC050020014801F05FB80000FC05002002
:100B600010B50B46002101614161416281610122A2
:100B7000C2610262016041608160C1600146184645
:100B800000F038FF002803D0BDE8104000F051BD50
:100B900010BD000010B50446491EC8B200EB40016C
:100BA00001EB0010074901EB80002146FFF7D8FF59
:100BB000204601F0CEFA2046BDE81040022100F0A8
:100BC00095BE0000C461002010B58AB00C9C019154
:100BD000002A12D003930492002105910822069264
:100BE0008DF81C10216808916168099100231A464C
:100BF00001A908F0A7F90AB010BD0293EBE7042899
:100C00004FF00000704700207047000010B5002230
:100C10000449054805F0FEFB0449034805F0ECFBD8
:100C2000002010BDD0140020F4070020D00C0020BC
:100C300038B5044621460C4805F0DEFB0A4805F0AD
:100C4000AFFB0A4800236A462146006808F02CFAE8
:100C5000009838B106494FF080500860BFF34F8FBD
:100C6000BFF36F8F002038BDF40700200C00002078
:100C700004ED00E00020704710B50A460849D1F89D
:100C8000BC12D1F81412002901D0012010BD014678
:100C9000034805F0BFFBBDE81040014805F050BC1B
:100CA000F40700208EB01C4E4FF0FF3809AF4246CB
:100CB00005A9306808F058FA059CA4F2052001281F
:100CC0000BD8142239466846FFF70AFC134806A9D8
:100CD0000EC905682046A847E9E7A4F50071073961
:100CE0000ED0B4F5027FE2D1142239466846FFF7F0
:100CF000F7FB0B4806A90EC945682046A847D6E76A
:100D0000142239466846FFF7EBFB064806A90EC9D0
:100D100005682046A847CAE700000020B40100206B
:100D200010020020AC0100208EB0204F204E214D3B
:100D30004FF0FF3A40F21F180DF12409524605A961
:100D4000386808F011FA059C9DF8300000F00F019A
:100D5000318044450BD1142249466846FFF7C0FB59
:100D600006A9D5F804C00EC92046E047E6E70129E8
:100D70000FD0A4F580712F39E0D11422494668467E
:100D8000FFF7AEFB06A9D5F808C00EC92046E0471C
:100D9000D4E7142249466846FFF7A2FB064806A995
:100DA0000EC9D0F80CC02046E047C7E70400002079
:100DB000E6020020800100209001002030B50020D4
:100DC0000124094A002352F820108D8F45B181F883
:100DD0003E3052F820108B87401C0128F3DB30BDD9
:100DE00081F83E40F5E700008C01002010B51A485C
:100DF000B9EE000A80ED030A184991ED090A80ED69
:100E0000010A9FED170A80ED040A1649098800EED1
:100E1000101AB8EE400A80ED020AF1EE080AB7EEA9
:100E2000000A443003F0A6FE0B48F2EE040AB1EECD
:100E3000080A143003F09EFE0B49002008760222B7
:100E4000CA754876C8760949087001224A708880B8
:100E50004880887110BD0000A4640020CC6200208E
:100E6000000000001C640020A46200204C0200204E
:100E700070B5644D644A2946A88C09881E2805D897
:100E800000EE101AB8EE400A82ED020A5F48604B8D
:100E90000478E4B1B0F9040040F6BA24E04203DC7F
:100EA00000F5005000B206E041F24654A04202DBD9
:100EB000A0F5005000B200EE100A5648B8EEC00A85
:100EC000D0ED000A30EE600A82ED020A0EE0B3F9BE
:100ED0000800D2ED020A404200EE100AB8EEC00A45
:100EE0009FED4D1A40EE010AC2ED020A4B4C90688C
:100EF000A04204DD9FED4A0A82ED020A06E0494C59
:100F0000A04203DA9FED480A82ED020A00EE101AB1
:100F10003E4CB8EE400A283C84ED070A10EE100A59
:100F20004FF08B41414EDFED420A884204DD30EE46
:100F3000600A84ED070A07E010EE100AB04203D9F8
:100F400030EE200A84ED070A94ED070ABDEEC01AC0
:100F500011EE100AD88192ED021A30EE410A84EDAA
:100F6000060A10EE100AB04204D330EE200A84EDD7
:100F7000060A07E010EE100A884203DB30EE600A32
:100F800084ED060A2B49A0699FED2B0A884204DAFA
:100F90002A49884201D284ED060A60782178884285
:100FA0000BD31948D4ED060AC83003F0EAFFBDEEB2
:100FB000C00A85ED040A0020607095ED010A124810
:100FC0001F49F8EEC00A95ED040A7430B8EEC00A65
:100FD00004F054F8BDEEC00A10EE100A00B22884E6
:100FE00000EE100A0848B8EEC00A443003F0DAFDFB
:100FF000BDEEC00A10EE100A28846078401C6070B4
:1010000070BD00001C640020A46400204C0200207D
:10101000A4620020640100200AD7233C004035452B
:10102000004035450000964300009643000080C50F
:10103000000000460000204100000000000020C128
:101040001C01002070B53348334A344D0378A0F1B9
:101050002801FAEE060A002B0DD04088F4EE001AA3
:1010600000EE100AB8EE401A9FED2D0A11EE210A8B
:1010700085ED030A1EE02B4891ED051AB0F9060034
:1010800000EE100AB8EEC00A20EE010A264B10EE60
:10109000100A984202DDB2EE060A05E010EE100AD0
:1010A000904201D9B0EE600A95ED031A31EE000AC4
:1010B00085ED030AE868B0F1804F04DDB0EE000A68
:1010C00085ED030A03E0904201D9C5ED030A91EDD5
:1010D000030A164CBDEEC00A10EE100A207091ED06
:1010E000040ABDEEC00A10EE100A607091ED020A0B
:1010F00004ED040A91ED010A04ED030A074895ED99
:10110000030A143003F04EFD95ED030A04ED050AC1
:1011100070BD00004C020020000030C1A46400201B
:1011200000008045A46200200000304104630020DC
:1011300010B5FFF787FFBDE8104000F001B80000D0
:101140000648817D0648012905D090F82200012833
:1011500003D1FFF78DBE002181847047A462002077
:101160001C64002010B504462DED028B606808F069
:101170002FFC41EC100B06F098FFB0EE408AF0EE29
:10118000608A206808F024FC41EC100B06F08DFF0B
:10119000B0EE401AF0EE601A53EC182B51EC110B24
:1011A00008F0DCFA06D29FED090A84ED000ABDECD6
:1011B000028B10BD94ED000A9FED051AF0EE400A77
:1011C00040EE410AC4ED000AF1E700000000000013
:1011D000CDCC4C3E014800F0EFBF0000940700204A
:1011E000014800F0E9BF0000D4060020014800F0EB
:1011F000E3BF0000340700200168CAB2103A182388
:10120000B2FBF3F2064B9B5CC3656FF30901032A43
:1012100002D9091D816500E08165806D704700007D
:10122000F09B000810B5014600208A6A8B694FF0D8
:10123000C074002B0ED0B3F5005F1AD062B3012A40
:101240002AD0022A28D0032A03D1C96AC90100D5AD
:10125000012010BD1AB1012A06D0022AF9D1C96AAB
:10126000C901F6D5012010BDC96AA142FBD10120F8
:1012700010BD52B1012A0AD0022A06D0032AF7D1A2
:10128000C96AA142F4D1012010BD012010BDC96A74
:10129000C901FBD5012010BD012010BD30B5046887
:1012A000256825F480252560046863608368402BE9
:1012B00004D0036899600068C26030BD03689A601A
:1012C0000068C16030BD000008B508F097F80090D4
:1012D00006A007A1884201D100F00CF804F0F2FA50
:1012E0000521684607F0F0FBF2E700005444460091
:1012F000445437002DE9F0472DED028B894B1878C7
:1013000001287DD100241C708748A0F116070178C0
:10131000427841EA0221C1F30A01A1F580613980D6
:10132000D508827845EA4215C5F30A05A5F580651A
:101330007D80C678920942EA8606027946EA8226CC
:10134000C6F30A06A6F58066BE804FEA520C4279C3
:101350004CEAC21CCCF30A0CACF5806CA7F806C0B2
:101360006431C82900D83C806D1D0A2D00D87C80CE
:10137000761D0A2E00D8BC800CF1050CBCF10A0FBA
:1013800000D8FC8091093972C2F301167E7282790D
:10139000C57942EA05227A81027A457A42EA052233
:1013A000BA81827AC57A42EA0522FA81027B3A74CE
:1013B000427B7A74827BC57B42EA05227A82027C78
:1013C000407C42EA0020A0F5806000B2B88200F5BF
:1013D0002570B0F5A56F00D9BC82544A0320DFF810
:1013E000509192ED000A534D4FF00108BDEEC08AB6
:1013F000032931D17EB3F98849422980B98800E0B8
:1014000089E049426980022E04D0032E08D0012EC3
:101410000BD014E085F816806C765C6268730EE081
:10142000AC756C766E735C6209E0AC7585F81980FA
:10143000586A322802DA401C586200E06E732C733E
:101440007888E88038882881B88A4000A88018EE1B
:10145000100A68814DE0FFE702293FD186B3F88882
:1014600040422880B888404268806E73B7F9020015
:1014700008F05DF99FED301B53EC112B08F0AAF931
:1014800008F026F9E8803888288185F80C8018EE65
:10149000100A68812A4890ED000A2A4880ED040A63
:1014A000022E04D0012E0CD0032E15D021E0B88AD4
:1014B00000EB8000A9F80A00AC7585F8198018E0E7
:1014C0000CE0AC7585F81980B88A00EB8001C1EB9F
:1014D0000040A9F80A000CE06C760AE0012901D16D
:1014E000032E0DD02C732C806C80AC802C81EC8072
:1014F0006873687B1449012807D003280AD00AE0E2
:1015000002F0B8FE03F080FEF3E789F80C8081F862
:10151000048000E00C710D480068BDEC028BBDE852
:10152000F0470047BC0100200A6400206801002049
:1015300080020020A46200209A9999999999C93F44
:101540006C010020A4640020E00200208001002043
:1015500012220249024802F015BB00000A64002072
:101560008C0600207047000010B52248224C017BF9
:10157000012902D1407B012813D00020E080B4F97A
:1015800002001F4900EE100A1E48F8EEC00A9FED47
:101590001B0A03F079FCBDEEC00A10EE100AE082CF
:1015A00010BDA068401FA06094ED040AF8EEC00AC8
:1015B00000EE100A1448B8EEC00A03F0E2FCBDEEDB
:1015C000C00A10EE100A00B2E080B4F9021000EE7A
:1015D000101A0B49F8EEC00A00EE100A0948B8EEDE
:1015E000C00A03F051FCBDEEC00A10EE100AE08202
:1015F00010BD0000800200200C63002000000000ED
:10160000446100205C6700200867002010B507488F
:10161000407B012803D0BDE8104004F0CDB803F0B2
:1016200037FABDE81040FFF71DBA00008002002025
:10163000704772B6FEE7704710B500F047F81D48D6
:101640001D4C90ED000AF1EE400AFDEEE00A10EEAE
:10165000900A00B22081BDEEC00A10EE101A21855A
:10166000B4F9021000EE101A1449F8EEC00A00EEA8
:10167000100A1348B8EEC00A03F006FCBDEEC00A1B
:1016800010EE100AE082B4F922000E4900EE100AB2
:10169000B4F92800F8EEC00A00EE100A0A48B8EEC5
:1016A000C00A03F0F1FBBDEEC00A10EE100AE0869E
:1016B00010BD0000D40200202C630020C460002074
:1016C0006866002004610020B866002009480A49C5
:1016D000407E002802D0094AD26822B19FED080A54
:1016E00081ED000A70470128FCD19FED060A81EDCB
:1016F000000A7047A4620020D4020020900200205B
:101700000000000000C0C145FEB504460020009066
:101710000190029004F12001204602F0E7FD94EDD3
:10172000080A04F1300104F1280003F02BF994EDCC
:10173000090A04F13C0104F1340003F023F92834D0
:10174000444D94F90800D4ED000AC0EBC00294EDBA
:10175000031A94F9140005EB820303EB800120EED9
:10176000810AD1ED001ADDED002A40EE212AD4EDE8
:10177000041A94F9151003EB810360EEA10A93EDAE
:10178000002A40EE822A94F9093094ED012AC3EB35
:10179000C30305EB830505EB800622EE011A96EDE7
:1017A000003A41EE032A05EB810562EE211A95ED20
:1017B000002A41EE822A274E9DED012AC43606EB0F
:1017C000820505EB800797ED003A00EE032A05EB52
:1017D000810595ED003A00EE832A06EB830505EBC3
:1017E000800696ED003A01EE032A05EB810595EDA2
:1017F000003A01EE832A184D9DED023A05EB820274
:1018000002EB8006D6ED003A00EE233A02EB8102AD
:1018100092ED000A00EE803A05EB830202EB8000B5
:1018200090ED000A01EE003A02EB810090ED000A13
:1018300001EE803AB0EE080AC2EE800A44ED0A0AD0
:10184000C2EE000A44ED090AC3EE000A44ED080A9C
:10185000FEBD0000109C0008989D000800220D4B62
:10186000002904D0012907D002290ED109E0D96846
:10187000C14001F0010208E09968C14001F0010295
:1018800003E01969C14001F001020AB1012070476B
:10189000002070476C63002010B5054C03E010F881
:1018A000013B5340E25C491E4B1CF8D1104610BD71
:1018B0005C9E000810B50B480168001D0468001DFF
:1018C0000068084400280BD00822074902F0B6FA45
:1018D000054920460422BDE81040103102F0AEBA9E
:1018E00010BD0000107AFF1F7600002090F8202025
:1018F000012A07D0022A05D0416A41F480214162C1
:1019000001207047006842690A4342610020704725
:10191000F0B590F820500468A468012D07D0022D7E
:1019200005D0416A41F4802141620120F0BD04F0FC
:10193000806504F00066354301D1E50053D5C4F35A
:1019400001640125A5401D608B684FF4C0759BB1F3
:10195000CE6805EB041733434E6843EAC6030668B6
:10196000F3514FF4C273076803EB04130E69FE5082
:10197000097D012909D00DE00E88CB6805EB04171D
:1019800043EA46530668F351EBE70168CE5846F444
:101990008076CE501179D379567941EA03619379F3
:1019A0001B0443EA062319434FF4C676036806EB8B
:1019B000041699511178D37841EA036193785278EB
:1019C0001B0443EA022211434FF4C473026803EB81
:1019D0000413D150006805EB0411425842F0010293
:1019E00042500020F0BD416A41F4001141620120E3
:1019F000F0BD000010B590F82020012A07D0022A7F
:101A000005D0416A41F480214162012010BD3C486B
:101A100000F50070026842F001020260026822F4E0
:101A20007C52026002684B6A42EA032202600A7D2D
:101A300002F01F0301229A40C3699343C361A0F5DA
:101A40000070CB69B3B9D0F80C329343C0F80C32B4
:101A50008C894B6864F31F434C6900EBC404C4F8E1
:101A600040320C890B6864F31F434C6900EBC404DB
:101A7000C4F84432CB69012B16D1D0F80C32134391
:101A8000C0F80C320C884B6864F31F434C6900EBC0
:101A9000C404C4F840320C89CB6864F31F434C691A
:101AA00000EBC404C4F844328B697BB1D0F8043233
:101AB0001343C0F804320B6973B1D0F814321343E6
:101AC000C0F81432096A01290CD010E0D0F80432B1
:101AD0009343C0F80432EEE7D0F814329343C0F8D1
:101AE0001432EFE7D0F81C121143C0F81C12D0F8E2
:101AF000001221F00101C0F80012002010BD00000A
:101B000000640040704770B590F82040012C07D069
:101B1000022C05D0416A41F480214162012070BD50
:101B200021B104682469A4072AD003E00468E468AA
:101B3000A4071FD04FF4D874056804EB01142D5985
:101B400005F0040595600DB305682D59ED08556045
:101B500005682C5904F00204D4604FF4DA74056867
:101B600004EB01142E5906F00F06082E13D3082596
:101B7000156114E0416A41F400114162012070BD19
:101B8000416A41F400114162012070BD05682D5980
:101B90006D0D1560DCE72D5905F00F051561056821
:101BA0002D59C5F30725956105682C59240C5461FE
:101BB0004FF4DC72046802EB0112A4581C70046834
:101BC000A458240A5C700468A458240C9C7004680F
:101BD000A258120EDA704FF4DE72046802EB0112A2
:101BE000A4581C710468A458240A5C710468A458A1
:101BF000240C9C710468A258120EDA7131B100688D
:101C0000016941F020010161002070BD0068C168D8
:101C100041F02001C160F7E72DE9F05F054600249F
:101C200028684669D0F804908768D0F80CA0D0F8EE
:101C300010B0D0F81880F10748D0F90714D001216E
:101C40008160B80703D5284600F0B0FA0CE07807A9
:101C500002D54FF4006407E0380702D54FF48054F2
:101C600002E0284600F0A1FAF80516D529684FF4DD
:101C700080708860B80503D5284600F099FA0CE01A
:101C8000780502D544F4005407E0380502D544F441
:101C9000804402E0284600F08AFAF80316D5296845
:101CA0004FF480308860B80303D5284600F082FAEC
:101CB0000CE0780302D544F4004407E0380302D571
:101CC00044F4803402E0284600F073FA300707D568
:101CD0005FEACA6004D544F4007429681020C86023
:101CE00070074FF0080707D55FEA0A7004D5286827
:101CF000C760284600F0C8F9B00706D52868C06854
:101D0000800702D0284600F0C1F9700607D55FEAC7
:101D1000CB6004D544F48064296810200861B006C3
:101D200007D55FEA0B7004D528680761284600F0E4
:101D30000DFAF00606D528680069800702D028460B
:101D400000F005FAB00308D55FEAC96005D5296837
:101D500010204860284600F0FBF9F00307D55FEA41
:101D6000097004D528684760284600F024FA30043A
:101D700046D55FEA497040D5F00504D55FEAC870E2
:101D800001D044F00104B00504D55FEA887001D5A4
:101D900044F00204700504D55FEA487001D544F0B0
:101DA0000404300529D518F0700F26D008F0700013
:101DB000402815D006DC102809D020280AD0302869
:101DC00016D10AE050280ED0602811D10EE044F060
:101DD00008040DE044F010040AE044F0200407E099
:101DE00044F0400404E044F0800401E044F48074D2
:101DF0002868816921F070018161296804204860A8
:101E0000002C05D0686A204368622846FFF77AFEF6
:101E1000BDE8F09F70B50446002C03D094F8200074
:101E200010B104E0012070BD204600F09DF820684C
:101E3000016841F00101016000F042FC0546052601
:101E40000CE000F03DFC401B0A2807D9606A40F412
:101E50000030606284F82060012070BD2068406816
:101E6000C007EED02068016821F00201016000F097
:101E700027FC05460CE000F023FC401B0A2807D98C
:101E8000606A40F40030606284F82060012070BD18
:101E9000206840688007EED4207E01283FD020686B
:101EA000016821F080010160607E01283DD020683A
:101EB000016821F040010160A07E01283BD020682C
:101EC000016821F020010160E07E012839D02068FE
:101ED000016841F010010160207F012837D020689F
:101EE000016821F008010160607F012835D0206879
:101EF000016821F004010160D4E902010843D4E93A
:101F00000412114308436168491E08432168C861EF
:101F100000206062012084F82000002070BD20684D
:101F2000016841F080010160BEE72068016841F06E
:101F300040010160C0E72068016841F020010160B4
:101F4000C2E72068016821F010010160C4E7206841
:101F5000016841F008010160C6E72068016841F0AE
:101F600004010160C8E700002DE9F04186B0044695
:101F7000142101A8FEF7E6FA3E4B3F4ADFF8F08055
:101F8000186821683C4C03260227401C10320025AB
:101F90004FF0090C41452FD11860012807D1106876
:101FA00040F000701060106800F000700090206831
:101FB00040F008002060206800F0080000900196C2
:101FC000029703950496CDF814C001A92B4800F0A0
:101FD0008FFA00220521132000F0E6FB132000F009
:101FE000D5FB00220521142000F0DEFB142000F0B8
:101FF000CDFB06B0BDE8F081DFF884804145F8D123
:10200000116841F080611160116801F080610091F8
:102010001860012807D1106840F000701060106847
:1020200000F000700090206840F0020020602068FE
:1020300000F0020000906020019002970395049642
:10204000CDF814C001A90F4800F052FA0022052172
:102050003F2000F0A9FB3F2000F098FB0022052163
:10206000402000F0A1FB402000F090FBC1E7000001
:10207000006400403C00002030380240000C024068
:10208000006800400004024070470000F8B5294B8A
:1020900002680021284D9A4201D1297001E00121F6
:1020A00029702978254C01EB410202EB011104EB68
:1020B000810202F1440328320021FFF724FD287831
:1020C00004F1980600EB400101EB001104EB8101E3
:1020D00000EBC000283106EB80001C22FEF700FA5E
:1020E000287800EB400202EB001204EB820200EBC6
:1020F000C00106EB8101936C526CC1E9072388B1E2
:102100000F4800236A46006806F0CEFF00980028BA
:1021100007D00C494FF080500860BFF34F8FBFF3DA
:102120006F8FF8BD0848314600236A46006806F004
:10213000BBFFEBE7006400407C010020C46100208D
:102140000400002004ED00E000000020704770470C
:10215000704770B5044694F82000012805D0606AE5
:1021600040F400206062012070BD022084F820004D
:102170002068016821F00101016000F0A1FA054624
:102180000DE000F09DFA401B0A2808D9606A40F46F
:1021900000306062052084F82000012070BD2068B6
:1021A0004068C007EDD1606270BD704770477047EE
:1021B00070477047704770472DE9F84304464FF069
:1021C0000009CDF800906F484FF416510068B0FB3D
:1021D000F1F7A56D2E6894F85C00082202FA00F170
:1021E000314210D02068016849070CD5016821F000
:1021F0000401016094F85C0002FA00F1A960606DCE
:1022000040F00100606594F85C104FF0010808FA96
:1022100001F0304208D021684969090604D5A86058
:10222000606D40F00200606594F85C100420884006
:10223000304208D021680968890704D5A860606D1C
:1022400040F00400606594F85C1010208840304233
:1022500020D02168096809071CD5A860206801689A
:1022600049030CD50068000304D4216C91B12046C9
:1022700088470FE0A16C69B1204688470AE00168F1
:10228000C90503D4016821F008010160216C09B17E
:102290002046884794F85C102020884030424CD07B
:1022A00021680968C90648D5A86094F83500052852
:1022B0000BD020680168490330D50068000328D49A
:1022C000616C51B32046884737E02068016821F0EF
:1022D000160101602068416921F080014161206C94
:1022E00008B9A06C20B12068016821F008010160E4
:1022F00094F85C103F208840A86084F8358084F80A
:102300003490216D00293BD001B02046BDE8F04358
:102310000847E16B09B1204688470EE00168C9050E
:1023200007D4016821F01001016084F8358084F839
:102330003490E16B09B120468847606D00281FD0BA
:10234000606DC00714D0052084F83500206801684E
:1023500021F0010101600098401C0090B84203D8B0
:1023600020680068C007F6D184F8358084F834907E
:10237000E16C002904D001B02046BDE8F0430847D5
:10238000BDE8F883B00000202DE9F041044600F0DC
:1023900097F905465CB1022084F83500002684F8E0
:1023A00034602068016821F0010101600DE0012026
:1023B000BDE8F08100F084F9401B052805D92020F4
:1023C0006065032084F83500F2E720680068C007E4
:1023D000F0D121680A6820480240D4E9010318437B
:1023E000D4E903352B43184363691843A3691843A1
:1023F000E3691843236A18431043626A042A03D12D
:10240000D4E90B231A43104308602068406920F088
:102410000700656A29460543012704290DD1A06AF2
:102420000543E06A48B12046FEF7FCFE28B1402093
:10243000606584F835700120BAE720684561204660
:10244000FEF7DAFE94F85C203F21914081606665DA
:1024500084F835700020ABE73F8010F02DE9F041A3
:1024600004460025A66D94F8340001280DD0012003
:1024700084F8340094F835700020012F07D084F8D8
:10248000340002252846BDE8F0810220FBE7022740
:1024900084F8357060652046FEF700FF94F85C1004
:1024A0003F208840B0602068016841F0160101605B
:1024B000206C20B12068016841F0080101602068AB
:1024C000016841F001010160DCE7000070B50446DD
:1024D00000F0F6F80546601C02D004480078044479
:1024E00000F0EEF8401BA042FAD370BDA40000201B
:1024F0002DE9F84F0022DFF89C914FF001080327E7
:102500004FF00F0C09F1040AA9F1040B08FA02F5C7
:102510000B682B40AB426ED10C7904F00304012C04
:1025200001D0022C15D18668540007FA04FE26EA71
:102530000E06D1F80CE00EFA04FE4EEA060EC0F8C4
:1025400008E04468AC430D79C5F300159540254378
:1025500045600C79E443A40708D0C568540007FA25
:1025600004F6B5438E68A6402E43C6600C7904F08D
:102570000304022C11D1D40800EB8406356A5407F9
:10258000E40E0CFA04FE25EA0E05D1F810E00EFA6E
:1025900004FE4EEA050EC6F820E00568540007FA6E
:1025A00004F6B5430E7906F00306A6402E430660F6
:1025B0004C6814F4403F67D0374C256845F480459B
:1025C0002560246804F480440094344C22F0030510
:1025D0002E19D6F8085894074FEA147E0CFA0EF418
:1025E000A5432F4CA04201D1002424E02D4CA04251
:1025F00002D101241FE047E02B4CA04201D102246C
:1026000019E02A4CA04201D1032414E0284CA04236
:1026100001D104240FE0274CA04201D105240AE097
:10262000254CA04201D1062405E0244CA04201D152
:10263000072400E0082404FA0EF42C43C6F80848E6
:10264000D9F800409C434D68ED0200D51C43C9F801
:102650000040DAF800409C434D68AD0200D51C43B1
:10266000CAF80040DBF800409C434D68AD0300D53C
:102670001C43CBF80040074D083D2C689C434E6836
:10268000F60300D51C432C60521C102AFFF43EAF09
:10269000BDE8F88F083C014044380240003001405A
:1026A000000002400004024000080240000C02400A
:1026B000001002400014024000180240001C0240BA
:1026C0000148806870470000A4000020024881682B
:1026D0000278114481607047A400002010B50B48B7
:1026E000016841F400710160016841F4806101609A
:1026F000016841F480710160032000F075F80F203B
:1027000000F006F800F026F8002010BD003C024062
:1027100070B504460D4D4FF47A712878B1FBF0F096
:102720000B490968B1FBF0F001F018FA08B101207B
:1027300070BD102C07D200222146501E00F034F844
:102740006C60002070BD012070BD0000A40000205E
:10275000B000002082B00C48016841F48041016063
:10276000006800F4804001900748001F016841F0B4
:1027700080510160006800F08050019000220F211C
:10278000901E02B000F010B844380240002809DB67
:1027900000F01F02012191404009800000F1E0207B
:1027A000C0F8001170470000F0B40D460D4B1B68D7
:1027B000C3F30223C3F10704042C00D90424191D18
:1027C000072901D2002300E0DB1E012606FA04F1EE
:1027D000491E294099409E40761E16403143F0BC68
:1027E00005F053BC0CED00E000F00701054A10684D
:1027F0004FF6FF03184040EA0120034908431060E8
:10280000704700000CED00E00000FA05704700681A
:1028100041620020704770B50368586A002907D0EC
:102820009C6A00EB144400204FF48275491E0AE0B4
:1028300040EA024098620DE005EB80069E5904EBE9
:102840001644401CC0B28842F6D305EB810144EA2D
:1028500002405850002070BDD0F8E00404F0FEB9EA
:1028600001EBC10200EB8202D0F8E004126A04F02E
:102870001CB901EBC10200EB8202D0F8E004D2F8EF
:10288000602204F083B9D0F8E00404F0E9B90A0644
:1028900001F00F0101EBC10100EB810101D5143101
:1028A00001E001F51571006805F04CB970B50446FA
:1028B0000B0601F00F0000EBC00104EB81014FF0AB
:1028C00001024FF0000502D514314A7002E001F513
:1028D00015714D70087094F89404012808D084F89C
:1028E0009424206804F042FE84F89454002070BDC3
:1028F000022070BD70B5044601F00F0022799042AD
:1029000001D9012070BD0B0601F00F0101EBC101DF
:1029100004EB81014FF001024FF0000502D51431A4
:102920004A7002E001F515714D708D70087094F8D1
:102930009404012808D084F89424206804F080FFCF
:1029400084F89454002070BD022070BD01F00F0186
:1029500001EBC10100EB8100D0F8680270472DE95E
:10296000F04104460F0601F00F0000EBC00104EB3C
:1029700081014FF001064FF0000502D514314E7071
:1029800002E001F515714D700870C2F30A028A6009
:102990000B714A7802B14883022B00D14D7194F833
:1029A0009404012809D084F89464206804F020FD80
:1029B000284684F89454BDE8F0810220FBE710B566
:1029C00001F00F0404EBC40100EB810101F5157166
:1029D000CA600B6100234B614B700C708379012B33
:1029E00000D1CA618279006804F082FF002010BD26
:1029F00070B504460D46217905F00F00884201D9D3
:102A0000012070BD29064FF000064FF0010206D5E7
:102A100000EBC00104EB810114314A7006E005EBC4
:102A2000C50104EB810101F515714E708A700870C3
:102A300094F89404012807D084F89424206804F0C2
:102A40002BFF280702D007E0022070BDA17904F215
:102A50009C42206804F0CAFE84F89464002070BD93
:102A600010B501F00F0404EBC40100EB8101143137
:102A7000CA600B6100234B6101234B700C7083799A
:102A8000012B00D1CA618279006804F031FF002077
:102A900010BD2DE9F84F04462568284605F0FCF8DE
:102AA00000287ED1206805F023F9002879D0D5F8D8
:102AB0000808C0F30D20C4F8D404206805F018F904
:102AC000800704D52068416901F002014161206856
:102AD00005F00EF9C10604F29C40009035D520683F
:102AE000816921F0100181612F6A07F00F0000EB6E
:102AF000C00004EB800606F51576C7F343400228B4
:102B000002D0062812D01BE047F6F070074217D01B
:102B1000C7F30A1217462846F16805F0EDF8F06889
:102B20003844F06070693844706109E00822284632
:102B3000009905F0E1F87069C7F30A110844706163
:102B40002068816941F010018161206805F0D0F8AA
:102B500000034FF0080B4FF000094FF001085ED55D
:102B60000026206805F0A3F8824655E05FEACA70A7
:102B70004FD0F1B2206805F0B3F80746F80707D048
:102B800005EB4610C0F8088B3146204602F05CF891
:102B9000380709D505EB4610C0F808BB314620467A
:102BA00000E0F8E102F02CF8F80604D505EB461138
:102BB0001020C1F8080BB8071CD56869000605D5B8
:102BC000D5F8040840F48061C5F8041806EBC60087
:102BD00004EB800000F51570C178012905D180F85B
:102BE0000390F1B2204600F0DCF905EB461102201B
:102BF000C1F8080BB80604D505EB46102021C0F833
:102C0000081BB80405D505EB46104FF40051C0F879
:102C1000081B761C4FEA5A0ABAF1000FA6D12068A9
:102C200005F066F840036CD5206805F039F8824657
:102C3000002663E05FEACA705DD0F1B2206805F05B
:102C40003DF80746F80723D006F00F0108FA01F017
:102C5000D5F834188143C5F8341805EB4610C0F890
:102C60000889A07901280FD106EBC60004EB80008B
:102C7000D0E907211144016236B9606A20B92068A1
:102C80000121009A04F0B2FDF1B22046FFF7E8FD01
:102C9000380703D505EB4610C0F808B9F80604D587
:102CA00005EB46111020C1F80809780604D505EB9C
:102CB00046104021C0F80819B80716D531462846F5
:102CC00004F0B8FF06EBC60004EB80001430C178B6
:102CD000012905D180F80390F1B2204600F05DF99A
:102CE00005EB46110220C1F80809380603D5314624
:102CF000204602F01BF8761C4FEA5A0ABAF1000F80
:102D000098D1206804F0F4FF002811DAD5F80408FF
:102D100020F00101C5F8041894F8CC04012829D04A
:102D2000204600F006FA2068416901F00041416147
:102D3000206804F0DDFF00050BD5D5F80808C007B2
:102D400002D0204600F038FA2068416901F40061A1
:102D50004161206804F0CCFFC00461D5D5F80408B7
:102D600020F00101C5F804181021206804F062FF6A
:102D7000002120E084F8CC9400212046FFF746FD96
:102D8000D1E705EB411000F510604FF67F3282600D
:102D9000036823F400130360C0F80822D0F800226F
:102DA00022F40012C0F80022D0F8002242F00062A3
:102DB000C0F80022491C20798842E2D8D5F81C08C6
:102DC00040F00111C5F81C18E07B60B1D5F884080B
:102DD00040F00B01C5F88418D5F8440840F00B0109
:102DE000C5F844180CE0D5F8140842F22B0108434A
:102DF000C5F81408D5F8100840F00B01C5F81018F4
:102E0000D5F8000820F4FE61C5F80018A179206803
:102E1000009A04F0EBFC2068416901F480514161A3
:102E2000206804F065FF800415D5206804F022FBBB
:102E3000206804F021FFE07100F020FB0146E279F8
:102E4000206804F0BFFF204600F05CF9206841696B
:102E500001F400514161206804F04AFF000707D5E2
:102E6000204600F06AF92068416901F008014161DB
:102E7000206804F03DFF000615D5A86920F0800108
:102E8000A96101260CE006EBC60004EB800090F877
:102E90005702012803D1F1B22046FFF7F8FC761C57
:102EA0002079B042EFD8206804F022FFC0021FD57D
:102EB000012615E005EB4610D0F8001906EBC60018
:102EC00004EB8000027E012A09D1002907DA80F88C
:102ED0001780F0B240F080012046FFF7D8FC761C46
:102EE0002079B042E6D82068416901F4801141613F
:102EF000206804F0FDFE800230D5012026E005EBBD
:102F00004011D1F8001B00EBC00204EB820292F8E2
:102F10005832012B19D1002917DA94F8D434C1F3AF
:102F2000004103F001038B420FD182F85782A96957
:102F300041F08002AA616969090606D4D5F804083F
:102F400040F40070C5F8040803E0401C2179814278
:102F5000D5D82068416901F400114161206804F06E
:102F6000C7FE400007D52046FFF776FC2068416980
:102F700001F080414161206804F0BAFE40070AD5A3
:102F800020684568680702D52046FFF77CFC20686A
:102F9000416829434160BDE8F88FD0F8E00403F0B0
:102FA000B2BED0F8E00403F0C3BEF8B50446002C6E
:102FB00005D0266894F89504002510B106E001209C
:102FC000F8BD84F89454204600F05AF8032084F8A1
:102FD0009504B6F1A04F00D1A571206804F000FC63
:102FE000207C8DF8000094E80F0004F051FA0226CE
:102FF00018B184F895640120F8BD0021206804F020
:103000009AFE18B184F895640120F8BD00210127CB
:103010000CE001EBC10004EB800047750175C18530
:103020000576C56105624562491CC9B220798842AE
:10303000EFD800210DE001EBC10004EB800000F5AA
:1030400015704570017005718560C5600561491C8A
:10305000C9B220798842EED8207C8DF8000094E82F
:103060000F0004F003FB18B184F895640120F8BD4B
:10307000657484F89574206804F0EAFA0020F8BDBD
:1030800010B586B00446142101A8FDF75BFA20684C
:10309000B0F1A04F2FD100211848026842F0010280
:1030A0000260006800F0010000904FF4C0500190F1
:1030B000022002900391032004900A20059001A9A8
:1030C0000F48FFF715FA0D48001D016841F0800117
:1030D00001600A481430016841F4804101600068D1
:1030E00000F480400090002205214320FFF75CFBA4
:1030F0004320FFF74BFB06B010BD00003038024004
:103100000000024070B504460125E07900280ED089
:10311000022801D0FEF78DFA2946D4F8E00403F026
:1031200079FED4F8E004BDE8704003F02BBE002522
:10313000F2E7D0F8E00403F056BED0F8E00403F064
:103140005CBE10B5044694F8940401280AD001200E
:1031500084F894046174206804F01DFE002084F853
:10316000940410BD022010BDD0F8E02400F29C4170
:10317000104603F05BBE10B50446206894F8941422
:10318000012909D0012184F89414C168490609D5A0
:10319000617B012902D005E0022010BD816B41F462
:1031A00080318163206804F01FFD206804F042FA3A
:1031B000002084F8940410BD10B50446D4F8E0044F
:1031C00003F076FE2068D0F8001E41F00101C0F83F
:1031D000001EE07A002804D00248016841F0060190
:1031E000016010BD10ED00E02DE9F84304464FF0FA
:1031F000010820684FF00007C10701D140072BD517
:10320000DFF81891C9F86870FFF75AFA0646444D7E
:1032100007E0FFF755FA801B022802D90320BDE81A
:10322000F88328680001F4D46068217A800140EABC
:1032300001703B4984310860C9F86880FFF740FAA3
:10324000064606E0FFF73CFA801B022801D903205E
:10325000E5E728680001F5D52078800753D5304888
:103260004030016841F080510160006800F08050FA
:1032700000902C4D286840F480702860FFF720FAF9
:10328000064606E0FFF71CFA801B022801D903203E
:10329000C5E72868C005F5D5214D7035286800F4CC
:1032A0004070F8B1A18901F4407181421AD02868B8
:1032B00020F440701C49C1F800800F602860286825
:1032C000C0070FD0FFF7FCF9064641F2883706E049
:1032D000FFF7F6F9801BB84201D903209FE7286861
:1032E0008007F5D5E0680E49C0F301220831032AB2
:1032F0000BD0086820F4F81008602868A189C1F391
:103300000B0108432860002089E70A68074B22F474
:10331000F812184002430A60EFE70000000047423D
:103320000038024000700040400E4742FFFCFF0F93
:103330002DE9F04704460D46002C13D0DFF8289104
:10334000D9F80000EFB200F00700A8420CD289F8CB
:103350000070D9F8000000F00700A84204D0012056
:10336000BDE8F0870120FBE72068404E810712D5B9
:10337000400703D5306840F4E05030602078000703
:1033800003D5306840F4604030603068A16820F0B8
:10339000F000084330602078C00731D033496068BE
:1033A0000839012808D002280BD0032809D0096861
:1033B00089070BD40120D3E70968890306D40120CB
:1033C000CEE70968890101D40120C9E7316821F0FD
:1033D000030101433160FFF773F9804641F2883AF7
:1033E00007E0FFF76DF9A0EB0800504501D9032075
:1033F000B6E73068616800F00C00B0EB810FF0D1E7
:10340000D9F8000000F00700A84209D989F8007037
:10341000D9F8000000F00700A84201D001209FE782
:103420002078400705D53068E16820F4E050084373
:1034300030602078000706D53068216920F46040AC
:1034400040EAC100306000F03FF83168084AC1F33B
:103450000311515CC8400749086007480068FFF73E
:1034600057F900207CE70000003C02400838024089
:10347000F89B0008B0000020A80000200148006868
:1034800070470000B000002000B5FFF7F7FF0449C7
:103490000968044AC1F38221515CC84000BD0000A4
:1034A00008380240089C000800B5FFF7E7FF044910
:1034B0000968044AC1F34231515CC84000BD0000B4
:1034C00008380240089C000810B51748006810F042
:1034D0000C01164816D0164B042912D0082911D118
:1034E000114C241F216801F03F02216849020AD5CE
:1034F0002068C0F38810A0FB03010023FCF734FF11
:1035000009E0184610BD21680023C1F38811A1FB12
:103510000001FCF729FF2168C1F30141491C490062
:10352000B0FBF1F010BD0000083802400024F400A8
:10353000001BB7002DE9F84F0446002C13D020786B
:10354000DFF8A083C007A8F1040556D008F10400F5
:103550000168C1F3810101290CD00068C0F381002A
:10356000022803D00DE00120BDE8F88FD8F8000054
:10357000400206D5286880033FD5606870BB0120F3
:10358000F2E76068B0F5803F10D0B0F5A02F12D000
:10359000286820F480302860286820F48020286083
:1035A0006068E0B1FFF78CF8064614E0286840F444
:1035B00080302860F4E7286840F48020286028687C
:1035C00040F480302860EBE7FFF77AF8801B64282E
:1035D00001D90320C8E728688003F5D50DE0FFF77F
:1035E0006FF8064606E0FFF76BF8801B642801D9E8
:1035F0000320B9E728688003F5D42078BA4F800704
:103600004FF0000948D5B748001D016811F00C0FB4
:1036100008D00068C0F38100022813D1D8F8000058
:1036200040020FD42868800704D5E068012801D043
:10363000012099E72868216920F0F80040EAC100DC
:10364000286029E0E068B8B101203860FFF738F859
:10365000064606E0FFF734F8801B022801D9032054
:1036600082E728688007F5D52868216920F0F800EE
:1036700040EAC10028600FE0C7F80090FFF720F88B
:10368000064606E0FFF71CF8801B022801D903203C
:103690006AE728688007F5D42078000729D5DFF885
:1036A00044A2924861690AF1700A89B1012101605E
:1036B000FFF706F8064606E0FFF702F8801B02282F
:1036C00001D9032050E7DAF800008007F4D510E0B4
:1036D000C0F80090FEF7F4FF064606E0FEF7F0FFA4
:1036E000801B022801D903203EE7DAF8000080079A
:1036F000F4D42078400778D54FF0000A79483C3060
:103700000068C0000BD477483C30016841F080511C
:103710000160006800F0805000904FF0010ADFF86F
:10372000D0B1DBF80000C00514D4DBF8000040F491
:103730008070CBF80000FEF7C3FF064606E0FEF7F8
:10374000BFFF801B022801D903200DE7DBF8000032
:10375000C005F4D5634EA0686C3601280FD005284B
:1037600012D0306820F001003060306820F0040092
:103770003060A068F8B1FEF7A3FF834617E0306819
:1037800040F001003060F4E7306840F00400306041
:10379000306840F001003060EBE7FEF791FFA0EBEE
:1037A0000B0141F28830814201D90320DCE6306808
:1037B0008007F2D510E0FEF783FF834609E0FEF7AD
:1037C0007FFFA0EB0B0141F28830814201D9032039
:1037D000CAE630688007F2D4BAF1010F05D141483A
:1037E0003C30016821F080510160A069C0B33D49BF
:1037F000091D09684FF0FF36C1F38101022946D047
:10380000022805D0C7F86090FEF75AFF04463AE058
:10381000C7F86090FEF754FF814607E0FEF750FFBF
:10382000A0EB0900022801D903209DE62868800149
:10383000F4D4D4E907010843616AA26A890106EB5E
:10384000520241EA0241084394F82C1040EA016018
:10385000C8F8000001203866FEF732FF044607E092
:103860003DE0FEF72DFF001B022801D903207BE677
:1038700028688001F5D532E0FEF722FF001B022800
:1038800001D9032070E628688001F5D427E00128DB
:1038900023D0D8F80000E26900F4800191421AD1E7
:1038A000226A00F03F01914215D147F6C071626A69
:1038B0000140B1EB821F0ED1A26A00F4403106EB49
:1038C0005202B1EB024F06D194F82C1000F0706058
:1038D000B0EB016F03D0012046E6012044E6002052
:1038E00042E600000438024000004742800E474292
:1038F0000070004010B50446002C02D0607F10B16B
:1039000006E0012010BD00202077204600F042F89C
:10391000022060772068C168C943C90631D5CA2131
:103920004162216853204862204601F034FCC8B946
:1039300020688168164A1140816020688168626849
:103940001143D4E904231A43114381602168E068DC
:10395000086120680169228941EA0241016120462B
:1039600001F03CFC48B921680A6C22F480220A6408
:1039700021680A6CA3691A430A642268FF21516214
:1039800000E000200028BDD10121617710BD0000BA
:10399000BFFF8FFF1FB5002100910191029103919C
:1039A0000068084988420CD1022000900002039070
:1039B0006846FFF719FC08B1FDF73BFE02490120FC
:1039C00008601FBD002800403C0E474270B5044609
:1039D0000B46207F012805D001262677022060773C
:1039E00012B108E0022070BD5878C10603D500F07E
:1039F000EF000A305870A2B19878D97840EA0145B2
:103A000058781978000240EA413005432168CA20FD
:103A10004862216853204862204601F0BCFB88B10F
:103A200017E0D87801F0ACFB0204587801F0A8FB4D
:103A300042EA0022987801F0A3FB0243187842EA98
:103A40004035E3E70748054020684560204601F01F
:103A5000C5FB00B966772268FF21516200212177FA
:103A600070BD00003FFFFF002DE9F04104460D4608
:103A7000207F012821D04FF0010884F81C8002200B
:103A800060770027E2B120688068400600D4EF70BC
:103A9000A878297840EA01466878E978000240EA87
:103AA000815006432168CA20486221685320486239
:103AB000204601F070FBC8B12BE00220BDE8F08188
:103AC00020688068400600D4EF70287801F058FB29
:103AD0000204687801F054FB42EA0022A87801F061
:103AE0004FFB0243E87842EA8056DBE70D48064088
:103AF000206806602068816821F480218160D5E912
:103B0000031001432068826811438160204601F060
:103B100065FB08B984F81D802268FF215162277770
:103B2000CCE700007F7F7F0070B505460A48296812
:103B3000C860FEF7C5FD04464FF47A7606E0FEF74E
:103B4000BFFD001BB04201D9032070BD2868C068CA
:103B50008006F4D5002070BD5F7F010010B5401EC7
:103B6000B0F1807F01D3012010BD4FF0E0246061EF
:103B70000F21601704F089FA0020A061072020615E
:103B8000002010BD38B5044694F84200202801D02A
:103B9000022038BD71B16AB101202063002060634A
:103BA000204602F0BFF90346206B012804D0012310
:103BB000184638BD012038BD206801684068009073
:103BC00020680C3050E8001F41F0100140E800125E
:103BD000002AF5D1ECE7000000680449884204D1CE
:103BE00003490120087003490870704700480040ED
:103BF000BC01002020020020704770B50446002C54
:103C000004D094F84100002510B106E0012070BDF9
:103C100084F84050204600F023F8242084F8410026
:103C20002068C16821F40051C160204602F0F0F81C
:103C30002068016921F4904101612068416921F007
:103C40002A0141612068C16841F40051C160656486
:103C5000202084F8410084F842006563002070BD94
:103C60002DE9F04F87B00446142102A8FCF76AFC46
:103C7000574A0225216857480026AF064FF0030A2D
:103C80004FF0070B4FF480684FF48079914263D175
:103C9000504914310A6842F010020A60096801F0C4
:103CA00010010191016841F002010160016801F019
:103CB00002010191016841F001010160006800F01A
:103CC000010001908020029003950496CDF814A085
:103CD000CDF818B002A94048FEF70AFC280202906D
:103CE00003950496CDF814A0CDF818B002A93B486E
:103CF000FEF7FEFB3B4D3A4828606F60AE60EE6019
:103D0000C5F810806E61AE61C5F81C902E626E62BF
:103D10002846FEF739FB08B1FDF78BFCE563AC6381
:103D20002F48304D7830603528606F604020A860A3
:103D3000EE60C5F810806E61AE61C5F81C902E6211
:103D40006E622846FEF720FB08B1FDF772FCA56302
:103D5000AC6307B0BDE8F08F234A9142F9D11D4909
:103D600010310A6842F480220A60096801F4802157
:103D70000191016841F004010160006800F0040055
:103D800001904FF44060029003950496CDF814A082
:103D9000CDF818B002A91548FEF7AAFB114D14483A
:103DA000C03528606F60AE60EE60C5F810806E614F
:103DB000AE61C5F81C904FF4403028626E62284610
:103DC000FEF7E2FA08B1FDF734FCE563AC63C0E747
:103DD0000010014030380240000402400000024060
:103DE00040640240D4060020004800400008024021
:103DF0002860024070477047FEE7000080ED080A27
:103E0000C0ED090A80ED0A1A416482649FED0A0A36
:103E100080ED0C0A80ED0E0A80ED0D0A80ED020A9D
:103E200080ED030A80ED040A80ED100A80ED010A9E
:103E300080ED000A7047000000000000F0B500238C
:103E40000A2530263727002412E0B5EB107F04D96D
:103E500006EB107C01F813C003E007EB107C01F8BF
:103E600013C0000101EB430C8CF801405B1CDBB27A
:103E70009342EAD3F0BD000010B58AB00120029051
:103E8000002004900590082106918DF81C00FF2069
:103E90008DF820008DF821008DF822008DF8230088
:103EA0008DF824008DF825008DF82600FC208DF873
:103EB000270008A80090054801230022446805480F
:103EC00003490068A0470AB010BD0000740100203B
:103ED000FC0500200800002090ED010AFCEEC00A5D
:103EE00010EE901A018380ED0D0A002101867047C3
:103EF00010B58AB00120029000200490059008219E
:103F000006918DF81C00FF208DF820008DF821000F
:103F10008DF822008DF823008DF824008DF82500FF
:103F20008DF82600FE208DF8270008A8009005488F
:103F3000012300224468054803490068A0470AB0ED
:103F400010BD000074010020FC05002008000020C6
:103F50000FB430B52DED028B81B09DF83410069C66
:103F6000641EF2EE090A9FED598AF1EE0C8A584D53
:103F700055F8240090ED010ABCEEC00A10EE102A9C
:103F80000283080955F8241008809DF836009DF832
:103F9000351040EA012055F8241088829DF837003A
:103FA0009DF83810000140EA111055F82410C8821D
:103FB00055F824109DF83900C88155F824001021C7
:103FC000BAEE090A808A04F04FFC55F8240080ED0F
:103FD000010AF6EE000A55F8240020EE200ADFED73
:103FE0003D0A20EE200ADFED3C0A20EE200A80ED9B
:103FF000010A55F824000C21F0EE480AC08A9FED12
:10400000370A04F031FC55F8240080ED020A55F817
:1040100024000C21F0EE680AC089B9EE0C0A04F005
:1040200023FC55F8240080ED040A55F824109DF86F
:104030003A00087355F824109DF83B00487355F872
:104040002400818A0091018BD0ED010A00EE101A44
:10405000234AB8EE400A30EEC00A10EE101A914220
:1040600002D9018E491C018655F82400018BD0ED40
:10407000010A00EE101AB8EE400A30EE600A10EEA7
:10408000101A914202D9018E491E018655F824006A
:10409000B0F93010D0ED010A490300EE101AB8EE65
:1040A000C00A30EE800A80ED0D0A55F82400818F99
:1040B000491C818755F82410012081F83A0001B08D
:1040C000BDEC028B30BC5DF814FB000000004843DF
:1040D0008C010020DB0F494000001042000048C363
:1040E0000020CBC508B505F089F90090094E0A4DAE
:1040F0000A4CA88F2188884204D170688047608864
:10410000401C6080A88F20800121684604F0DCFC00
:10411000EFE7000090010020CC620020EC020020BC
:104120002DE9F04104462DED068B82B0F0EE60AA39
:10413000B0EE419AF0EE619AB0EE42AADFED2C0AA1
:1041400020EE200AF0EE000A20EE200ADFED290A18
:1041500020EE200A9FED281A9FED288AF1EE0C8AA6
:104160001020DFED270A03F0BFFF05460C20B0EE5C
:10417000481ADFED240AB0EE6A0A03F0B5FF0646DE
:104180000C20B0EE681AF9EE0C0AB0EE4A0A03F001
:10419000ABFF07469FED1D8A0C209FED1B1AF0EE2A
:1041A000480AB0EE490A03F09FFF80460C20B1EEAA
:1041B000041AF0EE480AB0EE690A03F095FF019583
:1041C000290A217065703109A170310141EA182175
:1041D000E17084F8048001096171000140EA172050
:1041E000A071E77102B0BDEC068BBDE8F081000064
:1041F00000000039DB0F4940DC0F49400000484314
:10420000DC0F49C0000048C30000FA430000000072
:10421000016270472DE9F04106460F46144600251D
:10422000DFF8488013E006EB850090ED000A0F48A8
:1042300003F06FFF002318F8030060602268500647
:10424000FCD55B1CDBB2042BF5D36D1CADB2BD42BB
:10425000E9D30020064A115C616021684906FCD55B
:10426000401CC0B20428F6D3BDE8F081080200204B
:104270005CA1000870B51C48017C427C0904408A9E
:1042800041EA424505430021174C0126883C06FAC5
:1042900001F0284210D06218137D5B1CDBB213754D
:1042A000032B02D9A3680343A360127D3C2A17D9CC
:1042B00022690243226113E06218137D1B1F382B11
:1042C00003D2E3680343E36002E0E3688343E3600F
:1042D000A3688343A360236983432361002010758F
:1042E000491C1229D3DB70BDF463002030EE601A44
:1042F000D0ED030AD0ED041A30EEE12AF0EE081AF0
:10430000F0EE000A20EE210A20EE200AC0EE020A9A
:10431000C1ED000A90ED030A90ED042A21EE211A66
:1043200030EE422A81EE020A81ED010A10EE900A77
:104330000D4AF1EE040A904201DBC1ED000A0B4B7D
:104340000868B9EE041A984201D381ED001A10EE04
:10435000100A904201DBC1ED010A4868984201D37E
:1043600081ED011A704700000000A0400000A0C0CD
:104370000FB410B50298A0F207201D4901EB4010C0
:10438000018881819DF825109DF8242041EA0221B1
:1043900001809DF827109DF8262041EA02214180E6
:1043A0009DF829109DF8282041EA02218180028889
:1043B0008189104B541A9C4203DA818A491C8182FC
:1043C00005E0891A994202DA818A491E81820188B0
:1043D000B0F9142001EB4231016101888181818BA8
:1043E000491C81830121817610BC5DF814FB00001B
:1043F0000C63002090E8FFFF30B5039C050A257090
:104400006070080AA070E170100A20716271180AC9
:10441000A071E37130BD00000FB410B50298A0F296
:1044200005209DF825109DF8242041EA02221A4912
:1044300001EB401002809DF827109DF8262041EAEC
:10444000022141809DF829109DF8282041EA02218F
:1044500081809DF82A108171028881890F4B541A3E
:104460009C4203DA818A491C818205E0891A9942BB
:1044700002DA818A491E81820188B0F9142001EB99
:104480004231016101888181418B491C41830121B5
:10449000017610BC5DF814FB2C63002090E8FFFF50
:1044A00030B5039C050A25706070080AA070E170A1
:1044B000100A20716271180AA071E37130BD018881
:1044C000818100EE101AB8EE400A80ED070A002143
:1044D000018370470FB430B50398A0F502702A4AE3
:1044E00052F820100B888B819DF829109DF82830F8
:1044F00041EA032152F8203019809DF82B109DF8D5
:104500002A3041EA032152F8203009B259609DF85F
:104510002D109DF82C3041EA032152F820301981EA
:1045200052F820309DF82E10997252F820100B8806
:104530008C891C1B154B9C4202DA0C8B641C0C836F
:1045400052F820108C890D88641B9C4202DA0B8B78
:104550005B1E0B8352F820100B88B1F9184003EB57
:10456000443300EE103AB8EEC00A81ED070A52F863
:1045700020108B8C5B1C8B8452F82000012180F86A
:10458000221030BC5DF814FB0C0200209CE6FFFFFB
:104590004161704730B5039C050A25706070080AB8
:1045A000A070E170100A20716271180AA071E371A5
:1045B00030BD000010B510480E4901600321416074
:1045C00000218160C1604FF4102202614FF400129B
:1045D0004261017641768176C1760177012141778A
:1045E000FDF718FC002803D0BDE81040FDF721B806
:1045F00010BD000000640040D405002010B5104834
:104600000E4901600321416000218160C1604FF4C7
:10461000102202614FF400124261017641768176E8
:10462000C176017701214177FDF7F4FB002803D023
:10463000BDE81040FCF7FDBF10BD00000068004061
:10464000FC05002008B51548016841F4001101601F
:10465000016801F400110091016841F480010160DA
:10466000006800F480000090002205210C20FEF775
:104670009BF80C20FEF78AF8002205213A20FEF76D
:1046800093F83A20FEF782F8002205214620FEF733
:104690008BF8BDE808404620FEF778B83038024075
:1046A00010B5CEB000222421102004F0E3FB464CCC
:1046B000206000222421102004F0DCFB6060002236
:1046C0002421102004F0D6FBA06000221E2110201F
:1046D00004F0D0FBE0601C223C4947A8FBF700FF38
:1046E000002147A803F0ADFD60631C2237491C314F
:1046F00040A8FBF7F5FE002140A803F0A2FDA0634F
:104700001C223249383139A8FBF7EAFE002139A8CA
:1047100003F097FD20611C222C49543132A8FBF78D
:10472000DFFE002132A803F08CFD60611C222749C6
:1047300070312BA8FBF7D4FE00212BA803F081FDDC
:10474000A0611C2221498C3124A8FBF7C9FE00215D
:1047500024A803F076FDE0611C221C49A8311DA8A5
:10476000FBF7BEFE00211DA803F06BFD60621C225A
:104770001649C43116A8FBF7B3FE002116A803F0B2
:1047800060FD20621C221149E0310FA8FBF7A8FE52
:1047900000210FA803F055FDA0621C220B49FC313B
:1047A00008A8FBF79DFE002108A803F04AFDE0627F
:1047B0001C22074901A8FBF793FE002101A803F082
:1047C00040FD20634EB010BD00000020BC9A0008E0
:1047D000D49B000808B51548016841F0020101604A
:1047E000016801F002010091016841F001010160DE
:1047F000016801F001010091016841F008010160C8
:10480000016801F008010091016841F004010160B4
:10481000016801F004010091016841F0800101602C
:10482000006800F08000009008BD000030380240B1
:1048300010B586B0142101A8FBF784FE0024009473
:104840001A481949016044607F218160FF21C160DD
:10485000046144618461FFF74DF808B1FCF7E9FE9B
:104860008DF804408DF805408DF8064004940594B9
:10487000012201A90D48FFF7F7F808B1FCF7D9FEAE
:1048800001208DF800008DF801008DF802008DF8F0
:104890000340012269460548FFF798F8002801D037
:1048A000FCF7C7FE06B010BD00280040240600201B
:1048B00010B50C480A4901604FF4E1314160002114
:1048C0008160C16001610C2242618161C161FFF7B9
:1048D00094F9002803D0BDE81040FCF7AABE10BD33
:1048E000001001404406002010B50E480C4901603C
:1048F0000D4941604FF4805181604900C160C91089
:1049000001610C21416100218161C161FFF775F9ED
:10491000002803D0BDE81040FCF78BBE10BD00009E
:10492000004800408C060020A086010010B500223F
:104930000F49104802F093F808B1FCF77AFE0E49CF
:104940000C4802F0E4FA08B1FCF773FE0B49094881
:1049500001F046FD08B1FCF76CFE064802F0ACFB26
:10496000002803D0BDE81040FCF763BE10BD000076
:1049700040000020F40700204803002090000020A1
:10498000FEE7000070B510EE102A6FF040434FF4C0
:1049900080051A440123B0EE082AAA420DD2002253
:1049A0000A704B70F8EE000A70EEC00AC0ED000A03
:1049B00030EE020A80ED010A70BD10EE102A324C72
:1049C0004FF4000614440222F1EE400AB7EE001A3A
:1049D000F0EE001AB4420AD20B704A7070EEC10AAF
:1049E000C0ED000A30EE210A80ED010A70BD10EE24
:1049F000103A032413F1814F0DD8B5EEC00AF1EE41
:104A000010FA08D20A704C70C0ED000A30EE010AAC
:104A100080ED010A70BDB5EEC00A0423F1EE10FA74
:104A20000DDB10EE102AB2F17E5F08DA0C704B70CD
:104A300071EE400AC0ED000A80ED010A70BD10EE73
:104A4000102A0524A2F17E52B2420AD20B704C7099
:104A500071EEC00AC0ED000A30EE410A80ED010A95
:104A600070BD10EE102AA2F18042AA42F8D80C7054
:104A700006224A7072EE400AC0ED000A30EE610A6A
:104A800080ED010A70BD0000FFFF7F40FEE70000DF
:104A900070B5FDF715FE2B4C20612B4D606908B9F0
:104AA00028696061E06910B9FDF70AFEE061E1691B
:104AB0002069411AE06194ED000AB5EEC00AF1EEFA
:104AC00010FA02DB206A08442062E06828BB1D4E11
:104AD000243E307808BB1D48007B10B11C4880790B
:104AE000D8B11C48E880B5F902001C4900EE100A54
:104AF0001B48F8EEC00A9FED180A00F0C5F9BDEE9C
:104B0000C00A10EE100AE882286930616169091A4A
:104B1000A2691144A161606170BD0020E880B5F90F
:104B200002000E4900EE100A0D48F8EEC00A9FED93
:104B30000D0A00F0A9F9BDEEC00A10EE100AE882D5
:104B400070BD0000900200200C630020A4620020D1
:104B50004C02002078ECFFFF00409CC5446100201F
:104B60005C670020000000000148FDF792BF0000D4
:104B7000F01E00209FED0A1A80ED001AF7EE001AD1
:104B8000C0ED031A80ED090AC0ED0A0AC0ED071A4C
:104B900080ED081AC0ED0B1A80ED011A7047000075
:104BA00000000000D0ED071AD0ED000A21EEA01A97
:104BB00080ED011AD0ED090A90ED032A41EE820A38
:104BC000C0ED040AD0ED0A1A30EEA12AC0EE821A16
:104BD000C0ED061A30EE412AB0EE410A01EE820A1B
:104BE00080ED020AB7EE001A31EE611A61EE200A7A
:104BF000C0ED050AC0ED030A80ED000A7047000011
:104C000070B504462068056C00EB4110D0F8081B15
:104C10000C4EB54205D9090403D54FF40041C0F844
:104C2000081B2046FEF7A0FAB54208D9A079012852
:104C300005D104F29C420121206802F0D7FD00203A
:104C400070BD00000A30544F2DE9F04105460C4676
:104C50002E68306C06EB4411D1F8083B95F80680BD
:104C60004FF400474FF0200C05F29C42B8F1010FC1
:104C700008D0DFF8B080404545D118043AD5C1F8D6
:104C8000087B4CE0284E5FEA037806D5B04246D94F
:104C9000180444D5C1F8087B41E05FEA836802D577
:104CA000C1F808CB3BE013F0280F38D1B04204D94B
:104CB000180402D5C1F8087B31E004EBC40005EB11
:104CC000800000F51570D1F8101B036AC1F31201C2
:104CD000591A416124B903693BB1C2681144C160EA
:104CE000E1B22846FDF7C5FD19E00121286802F070
:104CF0007DFDF5E7980601D5C1F808CBE1B228465D
:104D0000FDF7B7FD0BE034B9D5F8640218B90021FE
:104D1000304602F06BFDE1B22846FDF7AAFD002007
:104D2000BDE8F0810A31544F0A30544F2DE9F84F55
:104D300080460E46D8F8007006EBC60008EB8004EB
:104D40001434D4E90410884202D90120BDE8F88F58
:104D5000081AA168814200D20846C01C4FEA900A96
:104D600007EB461916E0151AA268AA4200D21546AA
:104D7000E81C4FEA900A98F806000090ABB2F2B235
:104D80003846E16803F098F8E0682844E06060691C
:104D900028446061D9F8180980B2504505D3D4E998
:104DA0000420904201D2002ADDD1D4E904018842D6
:104DB00008D806F00F0101208840D7F83418814345
:104DC000C7F834180020C1E710B59FED103ADFEDA9
:104DD000102A9FED102AF6EE001A9FED0F1ADFED54
:104DE0000F0A9FED0F0A0F4800F022F9BDE81040AE
:104DF0004FF47A7242F210719FED0B1AF6EE000A30
:104E0000B2EE090A0948FEF7F9BF000000002F447E
:104E10000000FA4500409C46CDCCCC3E6F12833A50
:104E20009A99993E08670020000000005C67002006
:104E30004FF42F724FF4FA519FED041ADFED040A7C
:104E40009FED040A0448FEF7D9BF000000000000EF
:104E5000295C0F3D33335340686600204FF42F72B6
:104E60004FF4FA519FED041ADFED040A9FED040A96
:104E70000448FEF7C3BF000000000000295C0F3D9E
:104E800033335340B866002070B504462DED048BD3
:104E90000D4684ED000AC4ED010A30EE601A84ED7F
:104EA000021AD4ED050A30EE600A84ED060AD4ED4C
:104EB000030A94ED070A30EE010A84ED070AB0EE0A
:104EC000410A2846FCF720FC94ED080AD5ED000ABB
:104ED00095ED051A00EE810AD4ED098AD5ED010A97
:104EE00095ED061A40EE818A94ED0A8AD5ED020A04
:104EF00095ED071A00EE818A94ED0B9AD4ED020A23
:104F000020EE800A84ED0C0A94ED120A04F11C00D4
:104F1000B8EE400A03F0D3F894ED070A20EE280A11
:104F200084ED0D0AD4ED020A94ED031A70EEC10A65
:104F300060EE880AC4ED0E0A94ED061A21EE091AF5
:104F400084ED0F1AD4ED0C1A31EE800A30EE200AEF
:104F500030EE010A84ED100A94ED110A04F14000CC
:104F6000B8EE400A03F0ABF894ED020A84ED030AB0
:104F700094ED000A84ED050A94ED100ABDEC048B53
:104F800070BD10B5044684ED000AC4ED010A70EE50
:104F9000600AC4ED020A94ED031A30EEC11A84EDE2
:104FA000041AD4ED051A30EE610A84ED060AD4ED38
:104FB000081A61EEA01AC4ED0C1AD4ED0D1A94ED86
:104FC000092A42EE201AC4ED0D1AD4ED0A0A61EE48
:104FD000200AC4ED0E0AD4ED0B0A20EE800A84EDFF
:104FE0000F0A94ED130A04F1340003F068F894ED0D
:104FF0000C0AD4ED0D0A30EE200AD4ED0E0A30EE84
:10500000200AD4ED0F0A30EE200A84ED100A94ED48
:10501000110A04F1400003F052F894ED020A84ED05
:10502000030A94ED000A84ED050A94ED100A10BD00
:1050300080ED080AC0ED090A80ED0A1AC0ED0B1ACE
:1050400080ED112AC0ED122A80ED133A9FED0A0A75
:1050500080ED0C0A80ED0E0A80ED0D0A80ED020A4B
:1050600080ED030A80ED040A80ED100A80ED010A4C
:1050700080ED000A704700000000000070B5044693
:105080002DED028B0D46B0EE408AF0EE608AD4ED35
:10509000030A94ED020A2846FCF736FB84ED008AE9
:1050A000C4ED018A78EE680AC4ED020A94ED030AA1
:1050B00030EEC00A84ED040A94ED051A38EE411A68
:1050C00084ED061AD4ED081A95ED002A71EE821AC5
:1050D00061EEA01AC4ED0C1AD4ED091A95ED012A5F
:1050E00031EE822AD4ED0D1A42EE201AC4ED0D1ACB
:1050F000D4ED0A1A95ED022A71EE821A21EE800A89
:1051000084ED0E0A94ED0B0A20EE010A84ED0F0ADD
:1051100094ED120AF4EEC00AF1EE10FA04DB9FEDF2
:10512000170A84ED0D0A05E094ED130A04F134002A
:1051300002F0C5FF94ED0C0AD4ED0D0A30EE200A02
:10514000D4ED0E0A30EE200AD4ED0F0A30EE200A1C
:1051500084ED100A94ED110A04F1400002F0AFFF53
:1051600094ED020A84ED030A94ED000A84ED050A29
:1051700094ED100ABDEC028B70BD00000000000031
:10518000002102E0491C0A38C0B20A28FAD20907F5
:1051900040EA116070472DE9F0410446002520687F
:1051A000C168490617D4C16841F08001C160FDF7AC
:1051B00087FA06464FF47A78042706E0FDF780FA6E
:1051C000801B404501D9677701252068C0684006EB
:1051D00001D4012DF2D12846BDE8F08170B5044616
:1051E00000252068C16821F08001C16020688068C6
:1051F000800606D42046FEF797FC10B104206077A5
:105200000125284670BD00002DE9F05F2DED028BD1
:105210000025D44FD44C788C012801D070B118E00F
:1052200001210820FCF71AFB08B9388C88B9BD8029
:105230002562E5612561E5603D760AE001210820EF
:10524000FCF70CFB28B1BD802562E5612561E560B6
:105250003D7601210020FCF701FB9FEDC48ADFF8B9
:10526000088308F1280830B194ED010AB8EEC00AAD
:1052700088ED010A13E001210846FCF7EFFA40B17E
:105280006068404200EE100AB8EEC00A88ED010ADC
:1052900005E0B5482830FBF765FF88ED018AB24884
:1052A000283000F04FFA4042388001210220FCF7FC
:1052B000D5FADFF8B49209F1340940B1A068404250
:1052C00000EE100AB8EEC00A89ED010A11E00121D2
:1052D0000320FCF7C3FA30B194ED020AB8EEC00A1D
:1052E00089ED010A05E0A0483430FBF73BFF89ED6A
:1052F000018A9D48343000F025FA4042788001212F
:105300000620FCF7ABFA012608B1E06828B10121BC
:105310000620FCF7A3FA10B109E0E66007E0E068B8
:10532000012804D1E069282801DBE561E560DFF8A8
:1053300038A2B7F904000AF1400ABAF90A10884203
:1053400009DAE168012906D1E169282903DA0A307E
:10535000B880491CE16101210720FCF77FFA08B100
:10536000206928B101210720FCF778FA10B109E083
:10537000266107E02069012804D1206A282801DB82
:1053800025622561B7F90400BAF90810884209DDE1
:105390002169012906D1216A282903DA0A38B8804F
:1053A000491C216200211120FCF758FA7049714A0A
:1053B000714B90B1387B10B101280DD00DE03E73D8
:1053C00091ED000ABDEEC00A10EE100A788192ED50
:1053D000000A83ED040A00E03D73387B01280AD1FE
:1053E00091ED000ABDEEC00A10EE100A788192ED30
:1053F000000A83ED040A01211020FCF72FFA20B9DE
:1054000002211020FCF72AFA10B1787E01287ED004
:105410000320787301210D20FCF720FA90B14FF49E
:105420001670A8F80A004142A8F80810A9F80A0066
:10543000A9F808104FF44870AAF80A004FF6E040A7
:10544000AAF8080001210E20FCF708FA4FF4966B29
:1054500080B14FF46170A8F80A004142A8F8081022
:10546000A9F80A00A9F80810AAF80AB0CBF10000C0
:10547000AAF8080001210F20FCF7F0F980B1A8F884
:105480000AB03E48A8F80800A9F80AB0A9F8080030
:105490004FF4C860AAF80A004FF6C010AAF8080036
:1054A00000210B20FCF7DAF9DFF8D48060B1B8F9FD
:1054B0000A0040F22621C84206DA00F50770A8F873
:1054C0000A00F87D801EF87500210C20FCF7C6F953
:1054D00060B1B8F90A0040F6B831C84206DDA0F55F
:1054E0000770A8F80A00F87D801CF87525494889DE
:1054F00000EB800038818889C000F88001210520F8
:10550000FCF7ACF978B1A06918B10DE0FFE77E7344
:1055100080E7387E10B1012802D002E03E7600E03C
:105520003D76A66100E0A56101210920FCF796F90E
:1055300058B1606950B9787E10B1012802D002E0FC
:105540007E7600E07D76666100E0656101210A20DB
:10555000FCF784F920B1FE76BDEC028BBDE8F09F2C
:10556000FD76F9E7A4620020BC01002000000000E5
:10557000680100206C010020A464002050FBFFFFA4
:1055800080020020F463002030B5124B124C184604
:105590001A7E0025B0F90400616A012A03D0401A7E
:1055A0009880656230BD226A52B1012AFAD1C91EC3
:1055B0006162C01E988011F5967FF3DC256230BDD4
:1055C000C91C6162C01C9880B1F5967FF7DB012091
:1055D000206230BDA46200202402002086B003F0C7
:1055E0000DFF0590DFF89890DFF898B0DFF898A0ED
:1055F000264F274D274E0DF10C08D9F81000804793
:10560000D9F804008047244800688047CDF800801E
:105610002248234CBBF91620B0F920306468BAF94F
:105620003610BAF91600A04797F9390097ED0B2A02
:1056300000EE100A97F93800D7ED0A0AF8EEC01A02
:1056400000EE100A1748B8EEC01A016897ED090A73
:1056500001A88847CDF800806C6840F2FF13002253
:1056600011493068A04701A8009001236C6800220E
:105670000E493068A047022105A803F025FABCE7CF
:10568000540200200C6300202C630020CC62002018
:105690007401002008000020DC0200201C640020AF
:1056A000B401002090010020D4050020FC0500205A
:1056B0000178407841EA00207047000010B50548A5
:1056C0000068804700F00AF803484068BDE81040D1
:1056D00000470000C4020020B402002030B5154D80
:1056E00012A113A4687B0023134AA14215D1134CC5
:1056F000217B012901D111699160114909790129A1
:1057000001D019B103E00121617300E06373032844
:1057100003D1E97E012904D0D380022800D1D380AF
:1057200030BD4FF4FA61D180F7E7000054444600E1
:1057300044543700A46200200C6300208002002043
:10574000E002002090ED000AD0ED010A30EE200AC0
:1057500080ED000AB0F9081000EE901AF8EEE00AA9
:10576000B4EEE00AF1EE10FA05D200EE101AB8EE2F
:10577000C00A80ED000AB0F90A10D0ED000A00EE70
:10578000101AB8EEC00AF4EEC00AF1EE10FA05DD08
:1057900000EE101AB8EEC00A80ED000A90ED000A83
:1057A000BDEEC00A10EE100A00B27047FFF7BEF857
:1057B000012002F039FDFBE710B50C4C0D49B4F99E
:1057C000020000EE100A0C48F8EEC00A9FED080A2D
:1057D000FFF75AFBBDEEC00A10EE100AE082074840
:1057E0000021C1602169416110BD00000C630020EF
:1057F00000000000446100205C670020900200204F
:1058000010B5FCF763FF03F0EBFD012803D0BDE802
:10581000104003F019BB10BD30B593B0302107A87C
:10582000FAF790FE142102A8FAF78CFE00251F4813
:10583000016841F080510160006800F080500190E3
:105840001B48016841F480410160006800F4804019
:105850000190092007904FF48030089001200C90AF
:1058600002240D9480050E9006200F90A820109021
:1058700011940720129007A8FDF75CFE08B1FBF712
:10588000D8FE0F200290039404954FF4A050059089
:105890004FF480500690052102A8FDF749FD00282D
:1058A00001D0FBF7C6FE13B030BD00004038024007
:1058B000007000400248016841F4700101607047C7
:1058C00088ED00E02DE9F05FE948017801297DD1FC
:1058D00000260670E74801780F29F8D1017E0029DB
:1058E000F5D18178427801F0070300F11A0442EA09
:1058F00003226280CA08C17801F03F0342EA4312E2
:10590000A2800279890941EA8202417901F001030A
:1059100042EA8322E2804A08817901F00F0342EAD9
:10592000C31222810A09C17901F07F0342EA0312FE
:105930006281027AC90941EA4202417A01F0030315
:1059400042EA4322A2818A08817A01F01F0342EAD7
:105950008312E281C27A490941EAC2012182417B74
:10596000027B01F0070342EA03226282CA08817BBC
:1059700001F03F0342EA4312A282C27B890941EA55
:105980008202017C01F0010342EA8322E2824A089A
:10599000417C01F00F0342EAC31222830A09817C91
:1059A00001F07F0342EA03126283C27CC90941EA23
:1059B0004202017D01F0030342EA4322A2838A08E6
:1059C000417D01F01F0342EA831200E095E0E2838B
:1059D000807D490941EAC0002084B4F9020002F048
:1059E000DBFB04F12408A8F80000B4F9040002F07D
:1059F000D3FBA8F80200B4F9060002F0CDFBA8F82A
:105A00000400B4F9080002F0C7FBA8F80600B4F9D6
:105A10000A0002F0F6FB88F80800B4F90C0002F066
:105A2000F0FB88F80900B4F90E0002F0EAFB88F8F0
:105A30000A00B4F9100002F0E4FB88F80B00B4F996
:105A4000120002F0DEFB88F80C00B4F9140002F03A
:105A5000CBFB88F80D00B4F9160002F0D2FB88F8F1
:105A60000E00B4F9180002F0BFFB88F80F00B4F97B
:105A70001A0002F091FBA8F81000B4F91C0002F023
:105A80008BFBA8F81200B4F91E0002F085FBA8F801
:105A90001400B4F9200002F07FFBA8F81600764F3E
:105AA00098F80A407C737548754D4FF0010A032C35
:105AB00004D0022C06D0012C07D00AE02E7380F807
:105AC00004A006E02E73067103E085F80CA080F8B0
:105AD00004A098F80800DFF8ACB1DFF8AC91022818
